{"contracts/EVoting.sol":{"eVoting":{"abi":[{"inputs":[{"internalType":"uint256","name":"timeStartRegistry","type":"uint256"},{"internalType":"uint256","name":"timeStopRegistry","type":"uint256"},{"internalType":"uint256","name":"timeStartVote","type":"uint256"},{"internalType":"uint256","name":"timeStopVote","type":"uint256"},{"internalType":"bytes32","name":"generator","type":"bytes32"},{"internalType":"bytes32","name":"module","type":"bytes32"},{"internalType":"bytes32","name":"message","type":"bytes32"}],"stateMutability":"nonpayable","type":"constructor"},{"inputs":[],"name":"adminAddress","outputs":[{"internalType":"address","name":"","type":"address"}],"stateMutability":"view","type":"function"},{"inputs":[],"name":"clearData","outputs":[],"stateMutability":"nonpayable","type":"function"},{"inputs":[{"internalType":"bytes32","name":"publicValue","type":"bytes32"}],"name":"registrationToSession","outputs":[],"stateMutability":"nonpayable","type":"function"},{"inputs":[{"internalType":"bytes32","name":"yValue","type":"bytes32"}],"name":"saveYValue","outputs":[],"stateMutability":"nonpayable","type":"function"},{"inputs":[],"name":"session","outputs":[{"internalType":"uint256","name":"timeStartRegistry","type":"uint256"},{"internalType":"uint256","name":"timeStopRegistry","type":"uint256"},{"internalType":"uint256","name":"timeStartVote","type":"uint256"},{"internalType":"uint256","name":"timeStopVote","type":"uint256"},{"internalType":"bytes32","name":"generator","type":"bytes32"},{"internalType":"bytes32","name":"module","type":"bytes32"},{"internalType":"bytes32","name":"message","type":"bytes32"},{"internalType":"bytes32","name":"result","type":"bytes32"}],"stateMutability":"view","type":"function"},{"inputs":[{"internalType":"address[]","name":"votersAddresses","type":"address[]"}],"name":"setEligibleVoters","outputs":[],"stateMutability":"nonpayable","type":"function"},{"inputs":[],"name":"takeGeneratorAndModule","outputs":[{"internalType":"bytes32","name":"generator","type":"bytes32"},{"internalType":"bytes32","name":"module","type":"bytes32"}],"stateMutability":"view","type":"function"},{"inputs":[],"name":"takePublicValues","outputs":[{"internalType":"bytes32[]","name":"publicValues","type":"bytes32[]"}],"stateMutability":"view","type":"function"},{"inputs":[],"name":"takeResult","outputs":[{"internalType":"bytes32","name":"generator","type":"bytes32"},{"internalType":"bytes32","name":"result","type":"bytes32"}],"stateMutability":"view","type":"function"},{"inputs":[],"name":"takeVotes","outputs":[{"internalType":"bytes32[]","name":"votes_","type":"bytes32[]"}],"stateMutability":"view","type":"function"},{"inputs":[{"internalType":"address","name":"voterAddress","type":"address"}],"name":"takeYValue","outputs":[{"internalType":"bytes32","name":"yValue","type":"bytes32"}],"stateMutability":"view","type":"function"},{"inputs":[{"internalType":"bytes32","name":"message","type":"bytes32"}],"name":"updateMessageSession","outputs":[],"stateMutability":"nonpayable","type":"function"},{"inputs":[{"internalType":"uint256","name":"timeStartRegistry","type":"uint256"},{"internalType":"uint256","name":"timeStopRegistry","type":"uint256"},{"internalType":"uint256","name":"timeStartVote","type":"uint256"},{"internalType":"uint256","name":"timeStopVote","type":"uint256"}],"name":"updateTimesForSession","outputs":[],"stateMutability":"nonpayable","type":"function"},{"inputs":[{"internalType":"bytes32","name":"encryptedVote","type":"bytes32"}],"name":"vote","outputs":[],"stateMutability":"nonpayable","type":"function"},{"inputs":[{"internalType":"address","name":"","type":"address"}],"name":"voters","outputs":[{"internalType":"bool","name":"registered","type":"bool"},{"internalType":"bool","name":"voted","type":"bool"},{"internalType":"bytes32","name":"publicValue","type":"bytes32"},{"internalType":"bytes32","name":"yValue","type":"bytes32"},{"internalType":"bytes32","name":"ZKP","type":"bytes32"}],"stateMutability":"view","type":"function"}],"evm":{"bytecode":{"linkReferences":{},"object":"60806040523480156200001157600080fd5b5060405162001d8f38038062001d8f833981810160405281019062000037919062000144565b336000806101000a81548173ffffffffffffffffffffffffffffffffffffffff021916908373ffffffffffffffffffffffffffffffffffffffff16021790555086600360000181905550856003600101819055508460036002018190555083600380018190555082600360040181905550816003600501819055508060036007018190555050505050505050620001f7565b600080fd5b6000819050919050565b620000e381620000ce565b8114620000ef57600080fd5b50565b6000815190506200010381620000d8565b92915050565b6000819050919050565b6200011e8162000109565b81146200012a57600080fd5b50565b6000815190506200013e8162000113565b92915050565b600080600080600080600060e0888a031215620001665762000165620000c9565b5b6000620001768a828b01620000f2565b9750506020620001898a828b01620000f2565b96505060406200019c8a828b01620000f2565b9550506060620001af8a828b01620000f2565b9450506080620001c28a828b016200012d565b93505060a0620001d58a828b016200012d565b92505060c0620001e88a828b016200012d565b91505092959891949750929550565b611b8880620002076000396000f3fe608060405234801561001057600080fd5b50600436106100f55760003560e01c8063a156194d11610097578063b9e7a43911610066578063b9e7a4391461026b578063bff0a77f14610275578063e661c0cd14610291578063fc6f9468146102af576100f5565b8063a156194d146101cc578063a3ec138d146101fc578063a69beaba14610230578063a791b4761461024c576100f5565b806341fd0d9c116100d357806341fd0d9c146101505780634d8e18881461016f5780635e3568b81461018b5780639598abb2146101b0576100f5565b806309e0bd7e146100fa578063267931c014610116578063405eaa1c14610134575b600080fd5b610114600480360381019061010f9190610f9e565b6102cd565b005b61011e610368565b60405161012b9190611089565b60405180910390f35b61014e600480360381019061014991906110e1565b61047f565b005b61015861053a565b604051610166929190611157565b60405180910390f35b61018960048036038101906101849190610f9e565b610551565b005b61019361059b565b6040516101a798979695949392919061118f565b60405180910390f35b6101ca60048036038101906101c59190610f9e565b6105d1565b005b6101e660048036038101906101e1919061126b565b61083f565b6040516101f39190611298565b60405180910390f35b6102166004803603810190610211919061126b565b61088b565b6040516102279594939291906112ce565b60405180910390f35b61024a60048036038101906102459190610f9e565b6108db565b005b610254610b68565b604051610262929190611157565b60405180910390f35b610273610b7f565b005b61028f600480360381019061028a919061147a565b610c72565b005b610299610e13565b6040516102a69190611089565b60405180910390f35b6102b7610eb4565b6040516102c491906114d2565b60405180910390f35b60008054906101000a900473ffffffffffffffffffffffffffffffffffffffff1673ffffffffffffffffffffffffffffffffffffffff163373ffffffffffffffffffffffffffffffffffffffff161461035b576040517f08c379a000000000000000000000000000000000000000000000000000000000815260040161035290611570565b60405180910390fd5b8060036007018190555050565b606060028054905067ffffffffffffffff81111561038957610388611337565b5b6040519080825280602002602001820160405280156103b75781602001602082028036833780820191505090505b50905060005b60028054905081101561047b5760016000600283815481106103e2576103e1611590565b5b9060005260206000200160009054906101000a900473ffffffffffffffffffffffffffffffffffffffff1673ffffffffffffffffffffffffffffffffffffffff1673ffffffffffffffffffffffffffffffffffffffff1681526020019081526020016000206001015482828151811061045e5761045d611590565b5b60200260200101818152505080610474906115ee565b90506103bd565b5090565b3373ffffffffffffffffffffffffffffffffffffffff1660008054906101000a900473ffffffffffffffffffffffffffffffffffffffff1673ffffffffffffffffffffffffffffffffffffffff161461050d576040517f08c379a0000000000000000000000000000000000000000000000000000000008152600401610504906116a8565b60405180910390fd5b83600360000181905550826003600101819055508160036002018190555080600380018190555050505050565b600080600360040154915060036005015490509091565b80600160003373ffffffffffffffffffffffffffffffffffffffff1673ffffffffffffffffffffffffffffffffffffffff1681526020019081526020016000206002018190555050565b60038060000154908060010154908060020154908060030154908060040154908060050154908060070154908060080154905088565b4260036000015410610618576040517f08c379a000000000000000000000000000000000000000000000000000000000815260040161060f90611714565b60405180910390fd5b426003600101541161065f576040517f08c379a000000000000000000000000000000000000000000000000000000000815260040161065690611780565b60405180910390fd5b6000805b6002805490508110156106f7573373ffffffffffffffffffffffffffffffffffffffff166002828154811061069b5761069a611590565b5b9060005260206000200160009054906101000a900473ffffffffffffffffffffffffffffffffffffffff1673ffffffffffffffffffffffffffffffffffffffff16036106e657600191505b806106f0906115ee565b9050610663565b50600115158115151461073f576040517f08c379a000000000000000000000000000000000000000000000000000000000815260040161073690611812565b60405180910390fd5b60018060003373ffffffffffffffffffffffffffffffffffffffff1673ffffffffffffffffffffffffffffffffffffffff16815260200190815260200160002060000160016101000a81548160ff0219169083151502179055506000600160003373ffffffffffffffffffffffffffffffffffffffff1673ffffffffffffffffffffffffffffffffffffffff16815260200190815260200160002060000160016101000a81548160ff02191690831515021790555081600160003373ffffffffffffffffffffffffffffffffffffffff1673ffffffffffffffffffffffffffffffffffffffff168152602001908152602001600020600101819055505050565b6000600160008373ffffffffffffffffffffffffffffffffffffffff1673ffffffffffffffffffffffffffffffffffffffff168152602001908152602001600020600201549050919050565b60016020528060005260406000206000915090508060000160009054906101000a900460ff16908060000160019054906101000a900460ff16908060010154908060020154908060030154905085565b4260036002015410610922576040517f08c379a00000000000000000000000000000000000000000000000000000000081526004016109199061187e565b60405180910390fd5b42600380015411610968576040517f08c379a000000000000000000000000000000000000000000000000000000000815260040161095f906118ea565b60405180910390fd5b6000805b600280549050811015610a00573373ffffffffffffffffffffffffffffffffffffffff16600282815481106109a4576109a3611590565b5b9060005260206000200160009054906101000a900473ffffffffffffffffffffffffffffffffffffffff1673ffffffffffffffffffffffffffffffffffffffff16036109ef57600191505b806109f9906115ee565b905061096c565b506001151581151514610a48576040517f08c379a0000000000000000000000000000000000000000000000000000000008152600401610a3f90611812565b60405180910390fd5b60001515600160003373ffffffffffffffffffffffffffffffffffffffff1673ffffffffffffffffffffffffffffffffffffffff16815260200190815260200160002060000160019054906101000a900460ff16151514610ade576040517f08c379a0000000000000000000000000000000000000000000000000000000008152600401610ad590611956565b60405180910390fd5b600360060182908060018154018082558091505060019003906000526020600020016000909190919091505560018060003373ffffffffffffffffffffffffffffffffffffffff1673ffffffffffffffffffffffffffffffffffffffff16815260200190815260200160002060000160016101000a81548160ff0219169083151502179055505050565b600080600360040154915060036008015490509091565b60008054906101000a900473ffffffffffffffffffffffffffffffffffffffff1673ffffffffffffffffffffffffffffffffffffffff163373ffffffffffffffffffffffffffffffffffffffff1614610c0d576040517f08c379a0000000000000000000000000000000000000000000000000000000008152600401610c04906119e8565b60405180910390fd5b600360008082016000905560018201600090556002820160009055600382016000905560048201600090556005820160009055600682016000610c509190610ed8565b60078201600090556008820160009055505060026000610c709190610ef9565b565b60008054906101000a900473ffffffffffffffffffffffffffffffffffffffff1673ffffffffffffffffffffffffffffffffffffffff163373ffffffffffffffffffffffffffffffffffffffff1614610d00576040517f08c379a0000000000000000000000000000000000000000000000000000000008152600401610cf790611aa0565b60405180910390fd5b60005b8151811015610e0f576002828281518110610d2157610d20611590565b5b60200260200101519080600181540180825580915050600190039060005260206000200160009091909190916101000a81548173ffffffffffffffffffffffffffffffffffffffff021916908373ffffffffffffffffffffffffffffffffffffffff160217905550600060016000848481518110610da257610da1611590565b5b602002602001015173ffffffffffffffffffffffffffffffffffffffff1673ffffffffffffffffffffffffffffffffffffffff16815260200190815260200160002060000160006101000a81548160ff02191690831515021790555080610e08906115ee565b9050610d03565b5050565b606042600380015410610e5b576040517f08c379a0000000000000000000000000000000000000000000000000000000008152600401610e5290611b32565b60405180910390fd5b6003600601805480602002602001604051908101604052809291908181526020018280548015610eaa57602002820191906000526020600020905b815481526020019060010190808311610e96575b5050505050905090565b60008054906101000a900473ffffffffffffffffffffffffffffffffffffffff1681565b5080546000825590600052602060002090810190610ef69190610f1a565b50565b5080546000825590600052602060002090810190610f179190610f37565b50565b5b80821115610f33576000816000905550600101610f1b565b5090565b5b80821115610f50576000816000905550600101610f38565b5090565b6000604051905090565b600080fd5b600080fd5b6000819050919050565b610f7b81610f68565b8114610f8657600080fd5b50565b600081359050610f9881610f72565b92915050565b600060208284031215610fb457610fb3610f5e565b5b6000610fc284828501610f89565b91505092915050565b600081519050919050565b600082825260208201905092915050565b6000819050602082019050919050565b61100081610f68565b82525050565b60006110128383610ff7565b60208301905092915050565b6000602082019050919050565b600061103682610fcb565b6110408185610fd6565b935061104b83610fe7565b8060005b8381101561107c5781516110638882611006565b975061106e8361101e565b92505060018101905061104f565b5085935050505092915050565b600060208201905081810360008301526110a3818461102b565b905092915050565b6000819050919050565b6110be816110ab565b81146110c957600080fd5b50565b6000813590506110db816110b5565b92915050565b600080600080608085870312156110fb576110fa610f5e565b5b6000611109878288016110cc565b945050602061111a878288016110cc565b935050604061112b878288016110cc565b925050606061113c878288016110cc565b91505092959194509250565b61115181610f68565b82525050565b600060408201905061116c6000830185611148565b6111796020830184611148565b9392505050565b611189816110ab565b82525050565b6000610100820190506111a5600083018b611180565b6111b2602083018a611180565b6111bf6040830189611180565b6111cc6060830188611180565b6111d96080830187611148565b6111e660a0830186611148565b6111f360c0830185611148565b61120060e0830184611148565b9998505050505050505050565b600073ffffffffffffffffffffffffffffffffffffffff82169050919050565b60006112388261120d565b9050919050565b6112488161122d565b811461125357600080fd5b50565b6000813590506112658161123f565b92915050565b60006020828403121561128157611280610f5e565b5b600061128f84828501611256565b91505092915050565b60006020820190506112ad6000830184611148565b92915050565b60008115159050919050565b6112c8816112b3565b82525050565b600060a0820190506112e360008301886112bf565b6112f060208301876112bf565b6112fd6040830186611148565b61130a6060830185611148565b6113176080830184611148565b9695505050505050565b600080fd5b6000601f19601f8301169050919050565b7f4e487b7100000000000000000000000000000000000000000000000000000000600052604160045260246000fd5b61136f82611326565b810181811067ffffffffffffffff8211171561138e5761138d611337565b5b80604052505050565b60006113a1610f54565b90506113ad8282611366565b919050565b600067ffffffffffffffff8211156113cd576113cc611337565b5b602082029050602081019050919050565b600080fd5b60006113f66113f1846113b2565b611397565b90508083825260208201905060208402830185811115611419576114186113de565b5b835b81811015611442578061142e8882611256565b84526020840193505060208101905061141b565b5050509392505050565b600082601f83011261146157611460611321565b5b81356114718482602086016113e3565b91505092915050565b6000602082840312156114905761148f610f5e565b5b600082013567ffffffffffffffff8111156114ae576114ad610f63565b5b6114ba8482850161144c565b91505092915050565b6114cc8161122d565b82525050565b60006020820190506114e760008301846114c3565b92915050565b600082825260208201905092915050565b7f4e756d61692061646d696e6973747261746f72756c20706f617465207363686960008201527f6d6261206d6573616a756c210000000000000000000000000000000000000000602082015250565b600061155a602c836114ed565b9150611565826114fe565b604082019050919050565b600060208201905081810360008301526115898161154d565b9050919050565b7f4e487b7100000000000000000000000000000000000000000000000000000000600052603260045260246000fd5b7f4e487b7100000000000000000000000000000000000000000000000000000000600052601160045260246000fd5b60006115f9826110ab565b91507fffffffffffffffffffffffffffffffffffffffffffffffffffffffffffffffff820361162b5761162a6115bf565b5b600182019050919050565b7f4e756d61692061646d696e6973747261746f72756c20706f617465207265736560008201527f74612074696d7069692100000000000000000000000000000000000000000000602082015250565b6000611692602a836114ed565b915061169d82611636565b604082019050919050565b600060208201905081810360008301526116c181611685565b9050919050565b7f496e6361206e752076612070757465746920696e726567697374726121000000600082015250565b60006116fe601d836114ed565b9150611709826116c8565b602082019050919050565b6000602082019050818103600083015261172d816116f1565b9050919050565b7f4e75207661206d61692070757465746920696e72656769737472612100000000600082015250565b600061176a601c836114ed565b915061177582611734565b602082019050919050565b600060208201905081810360008301526117998161175d565b9050919050565b7f4e752073756e7465746920656c69676962696c2070656e747275206120766f7460008201527f6121000000000000000000000000000000000000000000000000000000000000602082015250565b60006117fc6022836114ed565b9150611807826117a0565b604082019050919050565b6000602082019050818103600083015261182b816117ef565b9050919050565b7f496e6361206e752070757465746920766f746121000000000000000000000000600082015250565b60006118686014836114ed565b915061187382611832565b602082019050919050565b600060208201905081810360008301526118978161185b565b9050919050565b7f4e75206d61692070757465746920766f74612100000000000000000000000000600082015250565b60006118d46013836114ed565b91506118df8261189e565b602082019050919050565b60006020820190508181036000830152611903816118c7565b9050919050565b7f41746920766f7461742064656a61210000000000000000000000000000000000600082015250565b6000611940600f836114ed565b915061194b8261190a565b602082019050919050565b6000602082019050818103600083015261196f81611933565b9050919050565b7f4e756d61692061646d696e6973747261746f72756c20706f617465207374657260008201527f676520646174656c652100000000000000000000000000000000000000000000602082015250565b60006119d2602a836114ed565b91506119dd82611976565b604082019050919050565b60006020820190508181036000830152611a01816119c5565b9050919050565b7f4e756d61692061646d696e6973747261746f72756c20706f617465207374616260008201527f696c692063696e65206573746520656c69676962696c2070656e74727520766f60208201527f7421000000000000000000000000000000000000000000000000000000000000604082015250565b6000611a8a6042836114ed565b9150611a9582611a08565b606082019050919050565b60006020820190508181036000830152611ab981611a7d565b9050919050565b7f53657369756e656120646520766f74617265206e7520732d61207465726d696e60008201527f6174210000000000000000000000000000000000000000000000000000000000602082015250565b6000611b1c6023836114ed565b9150611b2782611ac0565b604082019050919050565b60006020820190508181036000830152611b4b81611b0f565b905091905056fea26469706673582212209333e5a845b98aac1da23f0830dcc70e07ac7e331df3ab0a7669aa709413f30364736f6c63430008110033","opcodes":"PUSH1 0x80 PUSH1 0x40 MSTORE CALLVALUE DUP1 ISZERO PUSH3 0x11 JUMPI PUSH1 0x0 DUP1 REVERT JUMPDEST POP PUSH1 0x40 MLOAD PUSH3 0x1D8F CODESIZE SUB DUP1 PUSH3 0x1D8F DUP4 CODECOPY DUP2 DUP2 ADD PUSH1 0x40 MSTORE DUP2 ADD SWAP1 PUSH3 0x37 SWAP2 SWAP1 PUSH3 0x144 JUMP JUMPDEST CALLER PUSH1 0x0 DUP1 PUSH2 0x100 EXP DUP2 SLOAD DUP2 PUSH20 0xFFFFFFFFFFFFFFFFFFFFFFFFFFFFFFFFFFFFFFFF MUL NOT AND SWAP1 DUP4 PUSH20 0xFFFFFFFFFFFFFFFFFFFFFFFFFFFFFFFFFFFFFFFF AND MUL OR SWAP1 SSTORE POP DUP7 PUSH1 0x3 PUSH1 0x0 ADD DUP2 SWAP1 SSTORE POP DUP6 PUSH1 0x3 PUSH1 0x1 ADD DUP2 SWAP1 SSTORE POP DUP5 PUSH1 0x3 PUSH1 0x2 ADD DUP2 SWAP1 SSTORE POP DUP4 PUSH1 0x3 DUP1 ADD DUP2 SWAP1 SSTORE POP DUP3 PUSH1 0x3 PUSH1 0x4 ADD DUP2 SWAP1 SSTORE POP DUP2 PUSH1 0x3 PUSH1 0x5 ADD DUP2 SWAP1 SSTORE POP DUP1 PUSH1 0x3 PUSH1 0x7 ADD DUP2 SWAP1 SSTORE POP POP POP POP POP POP POP POP PUSH3 0x1F7 JUMP JUMPDEST PUSH1 0x0 DUP1 REVERT JUMPDEST PUSH1 0x0 DUP2 SWAP1 POP SWAP2 SWAP1 POP JUMP JUMPDEST PUSH3 0xE3 DUP2 PUSH3 0xCE JUMP JUMPDEST DUP2 EQ PUSH3 0xEF JUMPI PUSH1 0x0 DUP1 REVERT JUMPDEST POP JUMP JUMPDEST PUSH1 0x0 DUP2 MLOAD SWAP1 POP PUSH3 0x103 DUP2 PUSH3 0xD8 JUMP JUMPDEST SWAP3 SWAP2 POP POP JUMP JUMPDEST PUSH1 0x0 DUP2 SWAP1 POP SWAP2 SWAP1 POP JUMP JUMPDEST PUSH3 0x11E DUP2 PUSH3 0x109 JUMP JUMPDEST DUP2 EQ PUSH3 0x12A JUMPI PUSH1 0x0 DUP1 REVERT JUMPDEST POP JUMP JUMPDEST PUSH1 0x0 DUP2 MLOAD SWAP1 POP PUSH3 0x13E DUP2 PUSH3 0x113 JUMP JUMPDEST SWAP3 SWAP2 POP POP JUMP JUMPDEST PUSH1 0x0 DUP1 PUSH1 0x0 DUP1 PUSH1 0x0 DUP1 PUSH1 0x0 PUSH1 0xE0 DUP9 DUP11 SUB SLT ISZERO PUSH3 0x166 JUMPI PUSH3 0x165 PUSH3 0xC9 JUMP JUMPDEST JUMPDEST PUSH1 0x0 PUSH3 0x176 DUP11 DUP3 DUP12 ADD PUSH3 0xF2 JUMP JUMPDEST SWAP8 POP POP PUSH1 0x20 PUSH3 0x189 DUP11 DUP3 DUP12 ADD PUSH3 0xF2 JUMP JUMPDEST SWAP7 POP POP PUSH1 0x40 PUSH3 0x19C DUP11 DUP3 DUP12 ADD PUSH3 0xF2 JUMP JUMPDEST SWAP6 POP POP PUSH1 0x60 PUSH3 0x1AF DUP11 DUP3 DUP12 ADD PUSH3 0xF2 JUMP JUMPDEST SWAP5 POP POP PUSH1 0x80 PUSH3 0x1C2 DUP11 DUP3 DUP12 ADD PUSH3 0x12D JUMP JUMPDEST SWAP4 POP POP PUSH1 0xA0 PUSH3 0x1D5 DUP11 DUP3 DUP12 ADD PUSH3 0x12D JUMP JUMPDEST SWAP3 POP POP PUSH1 0xC0 PUSH3 0x1E8 DUP11 DUP3 DUP12 ADD PUSH3 0x12D JUMP JUMPDEST SWAP2 POP POP SWAP3 SWAP6 SWAP9 SWAP2 SWAP5 SWAP8 POP SWAP3 SWAP6 POP JUMP JUMPDEST PUSH2 0x1B88 DUP1 PUSH3 0x207 PUSH1 0x0 CODECOPY PUSH1 0x0 RETURN INVALID PUSH1 0x80 PUSH1 0x40 MSTORE CALLVALUE DUP1 ISZERO PUSH2 0x10 JUMPI PUSH1 0x0 DUP1 REVERT JUMPDEST POP PUSH1 0x4 CALLDATASIZE LT PUSH2 0xF5 JUMPI PUSH1 0x0 CALLDATALOAD PUSH1 0xE0 SHR DUP1 PUSH4 0xA156194D GT PUSH2 0x97 JUMPI DUP1 PUSH4 0xB9E7A439 GT PUSH2 0x66 JUMPI DUP1 PUSH4 0xB9E7A439 EQ PUSH2 0x26B JUMPI DUP1 PUSH4 0xBFF0A77F EQ PUSH2 0x275 JUMPI DUP1 PUSH4 0xE661C0CD EQ PUSH2 0x291 JUMPI DUP1 PUSH4 0xFC6F9468 EQ PUSH2 0x2AF JUMPI PUSH2 0xF5 JUMP JUMPDEST DUP1 PUSH4 0xA156194D EQ PUSH2 0x1CC JUMPI DUP1 PUSH4 0xA3EC138D EQ PUSH2 0x1FC JUMPI DUP1 PUSH4 0xA69BEABA EQ PUSH2 0x230 JUMPI DUP1 PUSH4 0xA791B476 EQ PUSH2 0x24C JUMPI PUSH2 0xF5 JUMP JUMPDEST DUP1 PUSH4 0x41FD0D9C GT PUSH2 0xD3 JUMPI DUP1 PUSH4 0x41FD0D9C EQ PUSH2 0x150 JUMPI DUP1 PUSH4 0x4D8E1888 EQ PUSH2 0x16F JUMPI DUP1 PUSH4 0x5E3568B8 EQ PUSH2 0x18B JUMPI DUP1 PUSH4 0x9598ABB2 EQ PUSH2 0x1B0 JUMPI PUSH2 0xF5 JUMP JUMPDEST DUP1 PUSH4 0x9E0BD7E EQ PUSH2 0xFA JUMPI DUP1 PUSH4 0x267931C0 EQ PUSH2 0x116 JUMPI DUP1 PUSH4 0x405EAA1C EQ PUSH2 0x134 JUMPI JUMPDEST PUSH1 0x0 DUP1 REVERT JUMPDEST PUSH2 0x114 PUSH1 0x4 DUP1 CALLDATASIZE SUB DUP2 ADD SWAP1 PUSH2 0x10F SWAP2 SWAP1 PUSH2 0xF9E JUMP JUMPDEST PUSH2 0x2CD JUMP JUMPDEST STOP JUMPDEST PUSH2 0x11E PUSH2 0x368 JUMP JUMPDEST PUSH1 0x40 MLOAD PUSH2 0x12B SWAP2 SWAP1 PUSH2 0x1089 JUMP JUMPDEST PUSH1 0x40 MLOAD DUP1 SWAP2 SUB SWAP1 RETURN JUMPDEST PUSH2 0x14E PUSH1 0x4 DUP1 CALLDATASIZE SUB DUP2 ADD SWAP1 PUSH2 0x149 SWAP2 SWAP1 PUSH2 0x10E1 JUMP JUMPDEST PUSH2 0x47F JUMP JUMPDEST STOP JUMPDEST PUSH2 0x158 PUSH2 0x53A JUMP JUMPDEST PUSH1 0x40 MLOAD PUSH2 0x166 SWAP3 SWAP2 SWAP1 PUSH2 0x1157 JUMP JUMPDEST PUSH1 0x40 MLOAD DUP1 SWAP2 SUB SWAP1 RETURN JUMPDEST PUSH2 0x189 PUSH1 0x4 DUP1 CALLDATASIZE SUB DUP2 ADD SWAP1 PUSH2 0x184 SWAP2 SWAP1 PUSH2 0xF9E JUMP JUMPDEST PUSH2 0x551 JUMP JUMPDEST STOP JUMPDEST PUSH2 0x193 PUSH2 0x59B JUMP JUMPDEST PUSH1 0x40 MLOAD PUSH2 0x1A7 SWAP9 SWAP8 SWAP7 SWAP6 SWAP5 SWAP4 SWAP3 SWAP2 SWAP1 PUSH2 0x118F JUMP JUMPDEST PUSH1 0x40 MLOAD DUP1 SWAP2 SUB SWAP1 RETURN JUMPDEST PUSH2 0x1CA PUSH1 0x4 DUP1 CALLDATASIZE SUB DUP2 ADD SWAP1 PUSH2 0x1C5 SWAP2 SWAP1 PUSH2 0xF9E JUMP JUMPDEST PUSH2 0x5D1 JUMP JUMPDEST STOP JUMPDEST PUSH2 0x1E6 PUSH1 0x4 DUP1 CALLDATASIZE SUB DUP2 ADD SWAP1 PUSH2 0x1E1 SWAP2 SWAP1 PUSH2 0x126B JUMP JUMPDEST PUSH2 0x83F JUMP JUMPDEST PUSH1 0x40 MLOAD PUSH2 0x1F3 SWAP2 SWAP1 PUSH2 0x1298 JUMP JUMPDEST PUSH1 0x40 MLOAD DUP1 SWAP2 SUB SWAP1 RETURN JUMPDEST PUSH2 0x216 PUSH1 0x4 DUP1 CALLDATASIZE SUB DUP2 ADD SWAP1 PUSH2 0x211 SWAP2 SWAP1 PUSH2 0x126B JUMP JUMPDEST PUSH2 0x88B JUMP JUMPDEST PUSH1 0x40 MLOAD PUSH2 0x227 SWAP6 SWAP5 SWAP4 SWAP3 SWAP2 SWAP1 PUSH2 0x12CE JUMP JUMPDEST PUSH1 0x40 MLOAD DUP1 SWAP2 SUB SWAP1 RETURN JUMPDEST PUSH2 0x24A PUSH1 0x4 DUP1 CALLDATASIZE SUB DUP2 ADD SWAP1 PUSH2 0x245 SWAP2 SWAP1 PUSH2 0xF9E JUMP JUMPDEST PUSH2 0x8DB JUMP JUMPDEST STOP JUMPDEST PUSH2 0x254 PUSH2 0xB68 JUMP JUMPDEST PUSH1 0x40 MLOAD PUSH2 0x262 SWAP3 SWAP2 SWAP1 PUSH2 0x1157 JUMP JUMPDEST PUSH1 0x40 MLOAD DUP1 SWAP2 SUB SWAP1 RETURN JUMPDEST PUSH2 0x273 PUSH2 0xB7F JUMP JUMPDEST STOP JUMPDEST PUSH2 0x28F PUSH1 0x4 DUP1 CALLDATASIZE SUB DUP2 ADD SWAP1 PUSH2 0x28A SWAP2 SWAP1 PUSH2 0x147A JUMP JUMPDEST PUSH2 0xC72 JUMP JUMPDEST STOP JUMPDEST PUSH2 0x299 PUSH2 0xE13 JUMP JUMPDEST PUSH1 0x40 MLOAD PUSH2 0x2A6 SWAP2 SWAP1 PUSH2 0x1089 JUMP JUMPDEST PUSH1 0x40 MLOAD DUP1 SWAP2 SUB SWAP1 RETURN JUMPDEST PUSH2 0x2B7 PUSH2 0xEB4 JUMP JUMPDEST PUSH1 0x40 MLOAD PUSH2 0x2C4 SWAP2 SWAP1 PUSH2 0x14D2 JUMP JUMPDEST PUSH1 0x40 MLOAD DUP1 SWAP2 SUB SWAP1 RETURN JUMPDEST PUSH1 0x0 DUP1 SLOAD SWAP1 PUSH2 0x100 EXP SWAP1 DIV PUSH20 0xFFFFFFFFFFFFFFFFFFFFFFFFFFFFFFFFFFFFFFFF AND PUSH20 0xFFFFFFFFFFFFFFFFFFFFFFFFFFFFFFFFFFFFFFFF AND CALLER PUSH20 0xFFFFFFFFFFFFFFFFFFFFFFFFFFFFFFFFFFFFFFFF AND EQ PUSH2 0x35B JUMPI PUSH1 0x40 MLOAD PUSH32 0x8C379A000000000000000000000000000000000000000000000000000000000 DUP2 MSTORE PUSH1 0x4 ADD PUSH2 0x352 SWAP1 PUSH2 0x1570 JUMP JUMPDEST PUSH1 0x40 MLOAD DUP1 SWAP2 SUB SWAP1 REVERT JUMPDEST DUP1 PUSH1 0x3 PUSH1 0x7 ADD DUP2 SWAP1 SSTORE POP POP JUMP JUMPDEST PUSH1 0x60 PUSH1 0x2 DUP1 SLOAD SWAP1 POP PUSH8 0xFFFFFFFFFFFFFFFF DUP2 GT ISZERO PUSH2 0x389 JUMPI PUSH2 0x388 PUSH2 0x1337 JUMP JUMPDEST JUMPDEST PUSH1 0x40 MLOAD SWAP1 DUP1 DUP3 MSTORE DUP1 PUSH1 0x20 MUL PUSH1 0x20 ADD DUP3 ADD PUSH1 0x40 MSTORE DUP1 ISZERO PUSH2 0x3B7 JUMPI DUP2 PUSH1 0x20 ADD PUSH1 0x20 DUP3 MUL DUP1 CALLDATASIZE DUP4 CALLDATACOPY DUP1 DUP3 ADD SWAP2 POP POP SWAP1 POP JUMPDEST POP SWAP1 POP PUSH1 0x0 JUMPDEST PUSH1 0x2 DUP1 SLOAD SWAP1 POP DUP2 LT ISZERO PUSH2 0x47B JUMPI PUSH1 0x1 PUSH1 0x0 PUSH1 0x2 DUP4 DUP2 SLOAD DUP2 LT PUSH2 0x3E2 JUMPI PUSH2 0x3E1 PUSH2 0x1590 JUMP JUMPDEST JUMPDEST SWAP1 PUSH1 0x0 MSTORE PUSH1 0x20 PUSH1 0x0 KECCAK256 ADD PUSH1 0x0 SWAP1 SLOAD SWAP1 PUSH2 0x100 EXP SWAP1 DIV PUSH20 0xFFFFFFFFFFFFFFFFFFFFFFFFFFFFFFFFFFFFFFFF AND PUSH20 0xFFFFFFFFFFFFFFFFFFFFFFFFFFFFFFFFFFFFFFFF AND PUSH20 0xFFFFFFFFFFFFFFFFFFFFFFFFFFFFFFFFFFFFFFFF AND DUP2 MSTORE PUSH1 0x20 ADD SWAP1 DUP2 MSTORE PUSH1 0x20 ADD PUSH1 0x0 KECCAK256 PUSH1 0x1 ADD SLOAD DUP3 DUP3 DUP2 MLOAD DUP2 LT PUSH2 0x45E JUMPI PUSH2 0x45D PUSH2 0x1590 JUMP JUMPDEST JUMPDEST PUSH1 0x20 MUL PUSH1 0x20 ADD ADD DUP2 DUP2 MSTORE POP POP DUP1 PUSH2 0x474 SWAP1 PUSH2 0x15EE JUMP JUMPDEST SWAP1 POP PUSH2 0x3BD JUMP JUMPDEST POP SWAP1 JUMP JUMPDEST CALLER PUSH20 0xFFFFFFFFFFFFFFFFFFFFFFFFFFFFFFFFFFFFFFFF AND PUSH1 0x0 DUP1 SLOAD SWAP1 PUSH2 0x100 EXP SWAP1 DIV PUSH20 0xFFFFFFFFFFFFFFFFFFFFFFFFFFFFFFFFFFFFFFFF AND PUSH20 0xFFFFFFFFFFFFFFFFFFFFFFFFFFFFFFFFFFFFFFFF AND EQ PUSH2 0x50D JUMPI PUSH1 0x40 MLOAD PUSH32 0x8C379A000000000000000000000000000000000000000000000000000000000 DUP2 MSTORE PUSH1 0x4 ADD PUSH2 0x504 SWAP1 PUSH2 0x16A8 JUMP JUMPDEST PUSH1 0x40 MLOAD DUP1 SWAP2 SUB SWAP1 REVERT JUMPDEST DUP4 PUSH1 0x3 PUSH1 0x0 ADD DUP2 SWAP1 SSTORE POP DUP3 PUSH1 0x3 PUSH1 0x1 ADD DUP2 SWAP1 SSTORE POP DUP2 PUSH1 0x3 PUSH1 0x2 ADD DUP2 SWAP1 SSTORE POP DUP1 PUSH1 0x3 DUP1 ADD DUP2 SWAP1 SSTORE POP POP POP POP POP JUMP JUMPDEST PUSH1 0x0 DUP1 PUSH1 0x3 PUSH1 0x4 ADD SLOAD SWAP2 POP PUSH1 0x3 PUSH1 0x5 ADD SLOAD SWAP1 POP SWAP1 SWAP2 JUMP JUMPDEST DUP1 PUSH1 0x1 PUSH1 0x0 CALLER PUSH20 0xFFFFFFFFFFFFFFFFFFFFFFFFFFFFFFFFFFFFFFFF AND PUSH20 0xFFFFFFFFFFFFFFFFFFFFFFFFFFFFFFFFFFFFFFFF AND DUP2 MSTORE PUSH1 0x20 ADD SWAP1 DUP2 MSTORE PUSH1 0x20 ADD PUSH1 0x0 KECCAK256 PUSH1 0x2 ADD DUP2 SWAP1 SSTORE POP POP JUMP JUMPDEST PUSH1 0x3 DUP1 PUSH1 0x0 ADD SLOAD SWAP1 DUP1 PUSH1 0x1 ADD SLOAD SWAP1 DUP1 PUSH1 0x2 ADD SLOAD SWAP1 DUP1 PUSH1 0x3 ADD SLOAD SWAP1 DUP1 PUSH1 0x4 ADD SLOAD SWAP1 DUP1 PUSH1 0x5 ADD SLOAD SWAP1 DUP1 PUSH1 0x7 ADD SLOAD SWAP1 DUP1 PUSH1 0x8 ADD SLOAD SWAP1 POP DUP9 JUMP JUMPDEST TIMESTAMP PUSH1 0x3 PUSH1 0x0 ADD SLOAD LT PUSH2 0x618 JUMPI PUSH1 0x40 MLOAD PUSH32 0x8C379A000000000000000000000000000000000000000000000000000000000 DUP2 MSTORE PUSH1 0x4 ADD PUSH2 0x60F SWAP1 PUSH2 0x1714 JUMP JUMPDEST PUSH1 0x40 MLOAD DUP1 SWAP2 SUB SWAP1 REVERT JUMPDEST TIMESTAMP PUSH1 0x3 PUSH1 0x1 ADD SLOAD GT PUSH2 0x65F JUMPI PUSH1 0x40 MLOAD PUSH32 0x8C379A000000000000000000000000000000000000000000000000000000000 DUP2 MSTORE PUSH1 0x4 ADD PUSH2 0x656 SWAP1 PUSH2 0x1780 JUMP JUMPDEST PUSH1 0x40 MLOAD DUP1 SWAP2 SUB SWAP1 REVERT JUMPDEST PUSH1 0x0 DUP1 JUMPDEST PUSH1 0x2 DUP1 SLOAD SWAP1 POP DUP2 LT ISZERO PUSH2 0x6F7 JUMPI CALLER PUSH20 0xFFFFFFFFFFFFFFFFFFFFFFFFFFFFFFFFFFFFFFFF AND PUSH1 0x2 DUP3 DUP2 SLOAD DUP2 LT PUSH2 0x69B JUMPI PUSH2 0x69A PUSH2 0x1590 JUMP JUMPDEST JUMPDEST SWAP1 PUSH1 0x0 MSTORE PUSH1 0x20 PUSH1 0x0 KECCAK256 ADD PUSH1 0x0 SWAP1 SLOAD SWAP1 PUSH2 0x100 EXP SWAP1 DIV PUSH20 0xFFFFFFFFFFFFFFFFFFFFFFFFFFFFFFFFFFFFFFFF AND PUSH20 0xFFFFFFFFFFFFFFFFFFFFFFFFFFFFFFFFFFFFFFFF AND SUB PUSH2 0x6E6 JUMPI PUSH1 0x1 SWAP2 POP JUMPDEST DUP1 PUSH2 0x6F0 SWAP1 PUSH2 0x15EE JUMP JUMPDEST SWAP1 POP PUSH2 0x663 JUMP JUMPDEST POP PUSH1 0x1 ISZERO ISZERO DUP2 ISZERO ISZERO EQ PUSH2 0x73F JUMPI PUSH1 0x40 MLOAD PUSH32 0x8C379A000000000000000000000000000000000000000000000000000000000 DUP2 MSTORE PUSH1 0x4 ADD PUSH2 0x736 SWAP1 PUSH2 0x1812 JUMP JUMPDEST PUSH1 0x40 MLOAD DUP1 SWAP2 SUB SWAP1 REVERT JUMPDEST PUSH1 0x1 DUP1 PUSH1 0x0 CALLER PUSH20 0xFFFFFFFFFFFFFFFFFFFFFFFFFFFFFFFFFFFFFFFF AND PUSH20 0xFFFFFFFFFFFFFFFFFFFFFFFFFFFFFFFFFFFFFFFF AND DUP2 MSTORE PUSH1 0x20 ADD SWAP1 DUP2 MSTORE PUSH1 0x20 ADD PUSH1 0x0 KECCAK256 PUSH1 0x0 ADD PUSH1 0x1 PUSH2 0x100 EXP DUP2 SLOAD DUP2 PUSH1 0xFF MUL NOT AND SWAP1 DUP4 ISZERO ISZERO MUL OR SWAP1 SSTORE POP PUSH1 0x0 PUSH1 0x1 PUSH1 0x0 CALLER PUSH20 0xFFFFFFFFFFFFFFFFFFFFFFFFFFFFFFFFFFFFFFFF AND PUSH20 0xFFFFFFFFFFFFFFFFFFFFFFFFFFFFFFFFFFFFFFFF AND DUP2 MSTORE PUSH1 0x20 ADD SWAP1 DUP2 MSTORE PUSH1 0x20 ADD PUSH1 0x0 KECCAK256 PUSH1 0x0 ADD PUSH1 0x1 PUSH2 0x100 EXP DUP2 SLOAD DUP2 PUSH1 0xFF MUL NOT AND SWAP1 DUP4 ISZERO ISZERO MUL OR SWAP1 SSTORE POP DUP2 PUSH1 0x1 PUSH1 0x0 CALLER PUSH20 0xFFFFFFFFFFFFFFFFFFFFFFFFFFFFFFFFFFFFFFFF AND PUSH20 0xFFFFFFFFFFFFFFFFFFFFFFFFFFFFFFFFFFFFFFFF AND DUP2 MSTORE PUSH1 0x20 ADD SWAP1 DUP2 MSTORE PUSH1 0x20 ADD PUSH1 0x0 KECCAK256 PUSH1 0x1 ADD DUP2 SWAP1 SSTORE POP POP POP JUMP JUMPDEST PUSH1 0x0 PUSH1 0x1 PUSH1 0x0 DUP4 PUSH20 0xFFFFFFFFFFFFFFFFFFFFFFFFFFFFFFFFFFFFFFFF AND PUSH20 0xFFFFFFFFFFFFFFFFFFFFFFFFFFFFFFFFFFFFFFFF AND DUP2 MSTORE PUSH1 0x20 ADD SWAP1 DUP2 MSTORE PUSH1 0x20 ADD PUSH1 0x0 KECCAK256 PUSH1 0x2 ADD SLOAD SWAP1 POP SWAP2 SWAP1 POP JUMP JUMPDEST PUSH1 0x1 PUSH1 0x20 MSTORE DUP1 PUSH1 0x0 MSTORE PUSH1 0x40 PUSH1 0x0 KECCAK256 PUSH1 0x0 SWAP2 POP SWAP1 POP DUP1 PUSH1 0x0 ADD PUSH1 0x0 SWAP1 SLOAD SWAP1 PUSH2 0x100 EXP SWAP1 DIV PUSH1 0xFF AND SWAP1 DUP1 PUSH1 0x0 ADD PUSH1 0x1 SWAP1 SLOAD SWAP1 PUSH2 0x100 EXP SWAP1 DIV PUSH1 0xFF AND SWAP1 DUP1 PUSH1 0x1 ADD SLOAD SWAP1 DUP1 PUSH1 0x2 ADD SLOAD SWAP1 DUP1 PUSH1 0x3 ADD SLOAD SWAP1 POP DUP6 JUMP JUMPDEST TIMESTAMP PUSH1 0x3 PUSH1 0x2 ADD SLOAD LT PUSH2 0x922 JUMPI PUSH1 0x40 MLOAD PUSH32 0x8C379A000000000000000000000000000000000000000000000000000000000 DUP2 MSTORE PUSH1 0x4 ADD PUSH2 0x919 SWAP1 PUSH2 0x187E JUMP JUMPDEST PUSH1 0x40 MLOAD DUP1 SWAP2 SUB SWAP1 REVERT JUMPDEST TIMESTAMP PUSH1 0x3 DUP1 ADD SLOAD GT PUSH2 0x968 JUMPI PUSH1 0x40 MLOAD PUSH32 0x8C379A000000000000000000000000000000000000000000000000000000000 DUP2 MSTORE PUSH1 0x4 ADD PUSH2 0x95F SWAP1 PUSH2 0x18EA JUMP JUMPDEST PUSH1 0x40 MLOAD DUP1 SWAP2 SUB SWAP1 REVERT JUMPDEST PUSH1 0x0 DUP1 JUMPDEST PUSH1 0x2 DUP1 SLOAD SWAP1 POP DUP2 LT ISZERO PUSH2 0xA00 JUMPI CALLER PUSH20 0xFFFFFFFFFFFFFFFFFFFFFFFFFFFFFFFFFFFFFFFF AND PUSH1 0x2 DUP3 DUP2 SLOAD DUP2 LT PUSH2 0x9A4 JUMPI PUSH2 0x9A3 PUSH2 0x1590 JUMP JUMPDEST JUMPDEST SWAP1 PUSH1 0x0 MSTORE PUSH1 0x20 PUSH1 0x0 KECCAK256 ADD PUSH1 0x0 SWAP1 SLOAD SWAP1 PUSH2 0x100 EXP SWAP1 DIV PUSH20 0xFFFFFFFFFFFFFFFFFFFFFFFFFFFFFFFFFFFFFFFF AND PUSH20 0xFFFFFFFFFFFFFFFFFFFFFFFFFFFFFFFFFFFFFFFF AND SUB PUSH2 0x9EF JUMPI PUSH1 0x1 SWAP2 POP JUMPDEST DUP1 PUSH2 0x9F9 SWAP1 PUSH2 0x15EE JUMP JUMPDEST SWAP1 POP PUSH2 0x96C JUMP JUMPDEST POP PUSH1 0x1 ISZERO ISZERO DUP2 ISZERO ISZERO EQ PUSH2 0xA48 JUMPI PUSH1 0x40 MLOAD PUSH32 0x8C379A000000000000000000000000000000000000000000000000000000000 DUP2 MSTORE PUSH1 0x4 ADD PUSH2 0xA3F SWAP1 PUSH2 0x1812 JUMP JUMPDEST PUSH1 0x40 MLOAD DUP1 SWAP2 SUB SWAP1 REVERT JUMPDEST PUSH1 0x0 ISZERO ISZERO PUSH1 0x1 PUSH1 0x0 CALLER PUSH20 0xFFFFFFFFFFFFFFFFFFFFFFFFFFFFFFFFFFFFFFFF AND PUSH20 0xFFFFFFFFFFFFFFFFFFFFFFFFFFFFFFFFFFFFFFFF AND DUP2 MSTORE PUSH1 0x20 ADD SWAP1 DUP2 MSTORE PUSH1 0x20 ADD PUSH1 0x0 KECCAK256 PUSH1 0x0 ADD PUSH1 0x1 SWAP1 SLOAD SWAP1 PUSH2 0x100 EXP SWAP1 DIV PUSH1 0xFF AND ISZERO ISZERO EQ PUSH2 0xADE JUMPI PUSH1 0x40 MLOAD PUSH32 0x8C379A000000000000000000000000000000000000000000000000000000000 DUP2 MSTORE PUSH1 0x4 ADD PUSH2 0xAD5 SWAP1 PUSH2 0x1956 JUMP JUMPDEST PUSH1 0x40 MLOAD DUP1 SWAP2 SUB SWAP1 REVERT JUMPDEST PUSH1 0x3 PUSH1 0x6 ADD DUP3 SWAP1 DUP1 PUSH1 0x1 DUP2 SLOAD ADD DUP1 DUP3 SSTORE DUP1 SWAP2 POP POP PUSH1 0x1 SWAP1 SUB SWAP1 PUSH1 0x0 MSTORE PUSH1 0x20 PUSH1 0x0 KECCAK256 ADD PUSH1 0x0 SWAP1 SWAP2 SWAP1 SWAP2 SWAP1 SWAP2 POP SSTORE PUSH1 0x1 DUP1 PUSH1 0x0 CALLER PUSH20 0xFFFFFFFFFFFFFFFFFFFFFFFFFFFFFFFFFFFFFFFF AND PUSH20 0xFFFFFFFFFFFFFFFFFFFFFFFFFFFFFFFFFFFFFFFF AND DUP2 MSTORE PUSH1 0x20 ADD SWAP1 DUP2 MSTORE PUSH1 0x20 ADD PUSH1 0x0 KECCAK256 PUSH1 0x0 ADD PUSH1 0x1 PUSH2 0x100 EXP DUP2 SLOAD DUP2 PUSH1 0xFF MUL NOT AND SWAP1 DUP4 ISZERO ISZERO MUL OR SWAP1 SSTORE POP POP POP JUMP JUMPDEST PUSH1 0x0 DUP1 PUSH1 0x3 PUSH1 0x4 ADD SLOAD SWAP2 POP PUSH1 0x3 PUSH1 0x8 ADD SLOAD SWAP1 POP SWAP1 SWAP2 JUMP JUMPDEST PUSH1 0x0 DUP1 SLOAD SWAP1 PUSH2 0x100 EXP SWAP1 DIV PUSH20 0xFFFFFFFFFFFFFFFFFFFFFFFFFFFFFFFFFFFFFFFF AND PUSH20 0xFFFFFFFFFFFFFFFFFFFFFFFFFFFFFFFFFFFFFFFF AND CALLER PUSH20 0xFFFFFFFFFFFFFFFFFFFFFFFFFFFFFFFFFFFFFFFF AND EQ PUSH2 0xC0D JUMPI PUSH1 0x40 MLOAD PUSH32 0x8C379A000000000000000000000000000000000000000000000000000000000 DUP2 MSTORE PUSH1 0x4 ADD PUSH2 0xC04 SWAP1 PUSH2 0x19E8 JUMP JUMPDEST PUSH1 0x40 MLOAD DUP1 SWAP2 SUB SWAP1 REVERT JUMPDEST PUSH1 0x3 PUSH1 0x0 DUP1 DUP3 ADD PUSH1 0x0 SWAP1 SSTORE PUSH1 0x1 DUP3 ADD PUSH1 0x0 SWAP1 SSTORE PUSH1 0x2 DUP3 ADD PUSH1 0x0 SWAP1 SSTORE PUSH1 0x3 DUP3 ADD PUSH1 0x0 SWAP1 SSTORE PUSH1 0x4 DUP3 ADD PUSH1 0x0 SWAP1 SSTORE PUSH1 0x5 DUP3 ADD PUSH1 0x0 SWAP1 SSTORE PUSH1 0x6 DUP3 ADD PUSH1 0x0 PUSH2 0xC50 SWAP2 SWAP1 PUSH2 0xED8 JUMP JUMPDEST PUSH1 0x7 DUP3 ADD PUSH1 0x0 SWAP1 SSTORE PUSH1 0x8 DUP3 ADD PUSH1 0x0 SWAP1 SSTORE POP POP PUSH1 0x2 PUSH1 0x0 PUSH2 0xC70 SWAP2 SWAP1 PUSH2 0xEF9 JUMP JUMPDEST JUMP JUMPDEST PUSH1 0x0 DUP1 SLOAD SWAP1 PUSH2 0x100 EXP SWAP1 DIV PUSH20 0xFFFFFFFFFFFFFFFFFFFFFFFFFFFFFFFFFFFFFFFF AND PUSH20 0xFFFFFFFFFFFFFFFFFFFFFFFFFFFFFFFFFFFFFFFF AND CALLER PUSH20 0xFFFFFFFFFFFFFFFFFFFFFFFFFFFFFFFFFFFFFFFF AND EQ PUSH2 0xD00 JUMPI PUSH1 0x40 MLOAD PUSH32 0x8C379A000000000000000000000000000000000000000000000000000000000 DUP2 MSTORE PUSH1 0x4 ADD PUSH2 0xCF7 SWAP1 PUSH2 0x1AA0 JUMP JUMPDEST PUSH1 0x40 MLOAD DUP1 SWAP2 SUB SWAP1 REVERT JUMPDEST PUSH1 0x0 JUMPDEST DUP2 MLOAD DUP2 LT ISZERO PUSH2 0xE0F JUMPI PUSH1 0x2 DUP3 DUP3 DUP2 MLOAD DUP2 LT PUSH2 0xD21 JUMPI PUSH2 0xD20 PUSH2 0x1590 JUMP JUMPDEST JUMPDEST PUSH1 0x20 MUL PUSH1 0x20 ADD ADD MLOAD SWAP1 DUP1 PUSH1 0x1 DUP2 SLOAD ADD DUP1 DUP3 SSTORE DUP1 SWAP2 POP POP PUSH1 0x1 SWAP1 SUB SWAP1 PUSH1 0x0 MSTORE PUSH1 0x20 PUSH1 0x0 KECCAK256 ADD PUSH1 0x0 SWAP1 SWAP2 SWAP1 SWAP2 SWAP1 SWAP2 PUSH2 0x100 EXP DUP2 SLOAD DUP2 PUSH20 0xFFFFFFFFFFFFFFFFFFFFFFFFFFFFFFFFFFFFFFFF MUL NOT AND SWAP1 DUP4 PUSH20 0xFFFFFFFFFFFFFFFFFFFFFFFFFFFFFFFFFFFFFFFF AND MUL OR SWAP1 SSTORE POP PUSH1 0x0 PUSH1 0x1 PUSH1 0x0 DUP5 DUP5 DUP2 MLOAD DUP2 LT PUSH2 0xDA2 JUMPI PUSH2 0xDA1 PUSH2 0x1590 JUMP JUMPDEST JUMPDEST PUSH1 0x20 MUL PUSH1 0x20 ADD ADD MLOAD PUSH20 0xFFFFFFFFFFFFFFFFFFFFFFFFFFFFFFFFFFFFFFFF AND PUSH20 0xFFFFFFFFFFFFFFFFFFFFFFFFFFFFFFFFFFFFFFFF AND DUP2 MSTORE PUSH1 0x20 ADD SWAP1 DUP2 MSTORE PUSH1 0x20 ADD PUSH1 0x0 KECCAK256 PUSH1 0x0 ADD PUSH1 0x0 PUSH2 0x100 EXP DUP2 SLOAD DUP2 PUSH1 0xFF MUL NOT AND SWAP1 DUP4 ISZERO ISZERO MUL OR SWAP1 SSTORE POP DUP1 PUSH2 0xE08 SWAP1 PUSH2 0x15EE JUMP JUMPDEST SWAP1 POP PUSH2 0xD03 JUMP JUMPDEST POP POP JUMP JUMPDEST PUSH1 0x60 TIMESTAMP PUSH1 0x3 DUP1 ADD SLOAD LT PUSH2 0xE5B JUMPI PUSH1 0x40 MLOAD PUSH32 0x8C379A000000000000000000000000000000000000000000000000000000000 DUP2 MSTORE PUSH1 0x4 ADD PUSH2 0xE52 SWAP1 PUSH2 0x1B32 JUMP JUMPDEST PUSH1 0x40 MLOAD DUP1 SWAP2 SUB SWAP1 REVERT JUMPDEST PUSH1 0x3 PUSH1 0x6 ADD DUP1 SLOAD DUP1 PUSH1 0x20 MUL PUSH1 0x20 ADD PUSH1 0x40 MLOAD SWAP1 DUP2 ADD PUSH1 0x40 MSTORE DUP1 SWAP3 SWAP2 SWAP1 DUP2 DUP2 MSTORE PUSH1 0x20 ADD DUP3 DUP1 SLOAD DUP1 ISZERO PUSH2 0xEAA JUMPI PUSH1 0x20 MUL DUP3 ADD SWAP2 SWAP1 PUSH1 0x0 MSTORE PUSH1 0x20 PUSH1 0x0 KECCAK256 SWAP1 JUMPDEST DUP2 SLOAD DUP2 MSTORE PUSH1 0x20 ADD SWAP1 PUSH1 0x1 ADD SWAP1 DUP1 DUP4 GT PUSH2 0xE96 JUMPI JUMPDEST POP POP POP POP POP SWAP1 POP SWAP1 JUMP JUMPDEST PUSH1 0x0 DUP1 SLOAD SWAP1 PUSH2 0x100 EXP SWAP1 DIV PUSH20 0xFFFFFFFFFFFFFFFFFFFFFFFFFFFFFFFFFFFFFFFF AND DUP2 JUMP JUMPDEST POP DUP1 SLOAD PUSH1 0x0 DUP3 SSTORE SWAP1 PUSH1 0x0 MSTORE PUSH1 0x20 PUSH1 0x0 KECCAK256 SWAP1 DUP2 ADD SWAP1 PUSH2 0xEF6 SWAP2 SWAP1 PUSH2 0xF1A JUMP JUMPDEST POP JUMP JUMPDEST POP DUP1 SLOAD PUSH1 0x0 DUP3 SSTORE SWAP1 PUSH1 0x0 MSTORE PUSH1 0x20 PUSH1 0x0 KECCAK256 SWAP1 DUP2 ADD SWAP1 PUSH2 0xF17 SWAP2 SWAP1 PUSH2 0xF37 JUMP JUMPDEST POP JUMP JUMPDEST JUMPDEST DUP1 DUP3 GT ISZERO PUSH2 0xF33 JUMPI PUSH1 0x0 DUP2 PUSH1 0x0 SWAP1 SSTORE POP PUSH1 0x1 ADD PUSH2 0xF1B JUMP JUMPDEST POP SWAP1 JUMP JUMPDEST JUMPDEST DUP1 DUP3 GT ISZERO PUSH2 0xF50 JUMPI PUSH1 0x0 DUP2 PUSH1 0x0 SWAP1 SSTORE POP PUSH1 0x1 ADD PUSH2 0xF38 JUMP JUMPDEST POP SWAP1 JUMP JUMPDEST PUSH1 0x0 PUSH1 0x40 MLOAD SWAP1 POP SWAP1 JUMP JUMPDEST PUSH1 0x0 DUP1 REVERT JUMPDEST PUSH1 0x0 DUP1 REVERT JUMPDEST PUSH1 0x0 DUP2 SWAP1 POP SWAP2 SWAP1 POP JUMP JUMPDEST PUSH2 0xF7B DUP2 PUSH2 0xF68 JUMP JUMPDEST DUP2 EQ PUSH2 0xF86 JUMPI PUSH1 0x0 DUP1 REVERT JUMPDEST POP JUMP JUMPDEST PUSH1 0x0 DUP2 CALLDATALOAD SWAP1 POP PUSH2 0xF98 DUP2 PUSH2 0xF72 JUMP JUMPDEST SWAP3 SWAP2 POP POP JUMP JUMPDEST PUSH1 0x0 PUSH1 0x20 DUP3 DUP5 SUB SLT ISZERO PUSH2 0xFB4 JUMPI PUSH2 0xFB3 PUSH2 0xF5E JUMP JUMPDEST JUMPDEST PUSH1 0x0 PUSH2 0xFC2 DUP5 DUP3 DUP6 ADD PUSH2 0xF89 JUMP JUMPDEST SWAP2 POP POP SWAP3 SWAP2 POP POP JUMP JUMPDEST PUSH1 0x0 DUP2 MLOAD SWAP1 POP SWAP2 SWAP1 POP JUMP JUMPDEST PUSH1 0x0 DUP3 DUP3 MSTORE PUSH1 0x20 DUP3 ADD SWAP1 POP SWAP3 SWAP2 POP POP JUMP JUMPDEST PUSH1 0x0 DUP2 SWAP1 POP PUSH1 0x20 DUP3 ADD SWAP1 POP SWAP2 SWAP1 POP JUMP JUMPDEST PUSH2 0x1000 DUP2 PUSH2 0xF68 JUMP JUMPDEST DUP3 MSTORE POP POP JUMP JUMPDEST PUSH1 0x0 PUSH2 0x1012 DUP4 DUP4 PUSH2 0xFF7 JUMP JUMPDEST PUSH1 0x20 DUP4 ADD SWAP1 POP SWAP3 SWAP2 POP POP JUMP JUMPDEST PUSH1 0x0 PUSH1 0x20 DUP3 ADD SWAP1 POP SWAP2 SWAP1 POP JUMP JUMPDEST PUSH1 0x0 PUSH2 0x1036 DUP3 PUSH2 0xFCB JUMP JUMPDEST PUSH2 0x1040 DUP2 DUP6 PUSH2 0xFD6 JUMP JUMPDEST SWAP4 POP PUSH2 0x104B DUP4 PUSH2 0xFE7 JUMP JUMPDEST DUP1 PUSH1 0x0 JUMPDEST DUP4 DUP2 LT ISZERO PUSH2 0x107C JUMPI DUP2 MLOAD PUSH2 0x1063 DUP9 DUP3 PUSH2 0x1006 JUMP JUMPDEST SWAP8 POP PUSH2 0x106E DUP4 PUSH2 0x101E JUMP JUMPDEST SWAP3 POP POP PUSH1 0x1 DUP2 ADD SWAP1 POP PUSH2 0x104F JUMP JUMPDEST POP DUP6 SWAP4 POP POP POP POP SWAP3 SWAP2 POP POP JUMP JUMPDEST PUSH1 0x0 PUSH1 0x20 DUP3 ADD SWAP1 POP DUP2 DUP2 SUB PUSH1 0x0 DUP4 ADD MSTORE PUSH2 0x10A3 DUP2 DUP5 PUSH2 0x102B JUMP JUMPDEST SWAP1 POP SWAP3 SWAP2 POP POP JUMP JUMPDEST PUSH1 0x0 DUP2 SWAP1 POP SWAP2 SWAP1 POP JUMP JUMPDEST PUSH2 0x10BE DUP2 PUSH2 0x10AB JUMP JUMPDEST DUP2 EQ PUSH2 0x10C9 JUMPI PUSH1 0x0 DUP1 REVERT JUMPDEST POP JUMP JUMPDEST PUSH1 0x0 DUP2 CALLDATALOAD SWAP1 POP PUSH2 0x10DB DUP2 PUSH2 0x10B5 JUMP JUMPDEST SWAP3 SWAP2 POP POP JUMP JUMPDEST PUSH1 0x0 DUP1 PUSH1 0x0 DUP1 PUSH1 0x80 DUP6 DUP8 SUB SLT ISZERO PUSH2 0x10FB JUMPI PUSH2 0x10FA PUSH2 0xF5E JUMP JUMPDEST JUMPDEST PUSH1 0x0 PUSH2 0x1109 DUP8 DUP3 DUP9 ADD PUSH2 0x10CC JUMP JUMPDEST SWAP5 POP POP PUSH1 0x20 PUSH2 0x111A DUP8 DUP3 DUP9 ADD PUSH2 0x10CC JUMP JUMPDEST SWAP4 POP POP PUSH1 0x40 PUSH2 0x112B DUP8 DUP3 DUP9 ADD PUSH2 0x10CC JUMP JUMPDEST SWAP3 POP POP PUSH1 0x60 PUSH2 0x113C DUP8 DUP3 DUP9 ADD PUSH2 0x10CC JUMP JUMPDEST SWAP2 POP POP SWAP3 SWAP6 SWAP2 SWAP5 POP SWAP3 POP JUMP JUMPDEST PUSH2 0x1151 DUP2 PUSH2 0xF68 JUMP JUMPDEST DUP3 MSTORE POP POP JUMP JUMPDEST PUSH1 0x0 PUSH1 0x40 DUP3 ADD SWAP1 POP PUSH2 0x116C PUSH1 0x0 DUP4 ADD DUP6 PUSH2 0x1148 JUMP JUMPDEST PUSH2 0x1179 PUSH1 0x20 DUP4 ADD DUP5 PUSH2 0x1148 JUMP JUMPDEST SWAP4 SWAP3 POP POP POP JUMP JUMPDEST PUSH2 0x1189 DUP2 PUSH2 0x10AB JUMP JUMPDEST DUP3 MSTORE POP POP JUMP JUMPDEST PUSH1 0x0 PUSH2 0x100 DUP3 ADD SWAP1 POP PUSH2 0x11A5 PUSH1 0x0 DUP4 ADD DUP12 PUSH2 0x1180 JUMP JUMPDEST PUSH2 0x11B2 PUSH1 0x20 DUP4 ADD DUP11 PUSH2 0x1180 JUMP JUMPDEST PUSH2 0x11BF PUSH1 0x40 DUP4 ADD DUP10 PUSH2 0x1180 JUMP JUMPDEST PUSH2 0x11CC PUSH1 0x60 DUP4 ADD DUP9 PUSH2 0x1180 JUMP JUMPDEST PUSH2 0x11D9 PUSH1 0x80 DUP4 ADD DUP8 PUSH2 0x1148 JUMP JUMPDEST PUSH2 0x11E6 PUSH1 0xA0 DUP4 ADD DUP7 PUSH2 0x1148 JUMP JUMPDEST PUSH2 0x11F3 PUSH1 0xC0 DUP4 ADD DUP6 PUSH2 0x1148 JUMP JUMPDEST PUSH2 0x1200 PUSH1 0xE0 DUP4 ADD DUP5 PUSH2 0x1148 JUMP JUMPDEST SWAP10 SWAP9 POP POP POP POP POP POP POP POP POP JUMP JUMPDEST PUSH1 0x0 PUSH20 0xFFFFFFFFFFFFFFFFFFFFFFFFFFFFFFFFFFFFFFFF DUP3 AND SWAP1 POP SWAP2 SWAP1 POP JUMP JUMPDEST PUSH1 0x0 PUSH2 0x1238 DUP3 PUSH2 0x120D JUMP JUMPDEST SWAP1 POP SWAP2 SWAP1 POP JUMP JUMPDEST PUSH2 0x1248 DUP2 PUSH2 0x122D JUMP JUMPDEST DUP2 EQ PUSH2 0x1253 JUMPI PUSH1 0x0 DUP1 REVERT JUMPDEST POP JUMP JUMPDEST PUSH1 0x0 DUP2 CALLDATALOAD SWAP1 POP PUSH2 0x1265 DUP2 PUSH2 0x123F JUMP JUMPDEST SWAP3 SWAP2 POP POP JUMP JUMPDEST PUSH1 0x0 PUSH1 0x20 DUP3 DUP5 SUB SLT ISZERO PUSH2 0x1281 JUMPI PUSH2 0x1280 PUSH2 0xF5E JUMP JUMPDEST JUMPDEST PUSH1 0x0 PUSH2 0x128F DUP5 DUP3 DUP6 ADD PUSH2 0x1256 JUMP JUMPDEST SWAP2 POP POP SWAP3 SWAP2 POP POP JUMP JUMPDEST PUSH1 0x0 PUSH1 0x20 DUP3 ADD SWAP1 POP PUSH2 0x12AD PUSH1 0x0 DUP4 ADD DUP5 PUSH2 0x1148 JUMP JUMPDEST SWAP3 SWAP2 POP POP JUMP JUMPDEST PUSH1 0x0 DUP2 ISZERO ISZERO SWAP1 POP SWAP2 SWAP1 POP JUMP JUMPDEST PUSH2 0x12C8 DUP2 PUSH2 0x12B3 JUMP JUMPDEST DUP3 MSTORE POP POP JUMP JUMPDEST PUSH1 0x0 PUSH1 0xA0 DUP3 ADD SWAP1 POP PUSH2 0x12E3 PUSH1 0x0 DUP4 ADD DUP9 PUSH2 0x12BF JUMP JUMPDEST PUSH2 0x12F0 PUSH1 0x20 DUP4 ADD DUP8 PUSH2 0x12BF JUMP JUMPDEST PUSH2 0x12FD PUSH1 0x40 DUP4 ADD DUP7 PUSH2 0x1148 JUMP JUMPDEST PUSH2 0x130A PUSH1 0x60 DUP4 ADD DUP6 PUSH2 0x1148 JUMP JUMPDEST PUSH2 0x1317 PUSH1 0x80 DUP4 ADD DUP5 PUSH2 0x1148 JUMP JUMPDEST SWAP7 SWAP6 POP POP POP POP POP POP JUMP JUMPDEST PUSH1 0x0 DUP1 REVERT JUMPDEST PUSH1 0x0 PUSH1 0x1F NOT PUSH1 0x1F DUP4 ADD AND SWAP1 POP SWAP2 SWAP1 POP JUMP JUMPDEST PUSH32 0x4E487B7100000000000000000000000000000000000000000000000000000000 PUSH1 0x0 MSTORE PUSH1 0x41 PUSH1 0x4 MSTORE PUSH1 0x24 PUSH1 0x0 REVERT JUMPDEST PUSH2 0x136F DUP3 PUSH2 0x1326 JUMP JUMPDEST DUP2 ADD DUP2 DUP2 LT PUSH8 0xFFFFFFFFFFFFFFFF DUP3 GT OR ISZERO PUSH2 0x138E JUMPI PUSH2 0x138D PUSH2 0x1337 JUMP JUMPDEST JUMPDEST DUP1 PUSH1 0x40 MSTORE POP POP POP JUMP JUMPDEST PUSH1 0x0 PUSH2 0x13A1 PUSH2 0xF54 JUMP JUMPDEST SWAP1 POP PUSH2 0x13AD DUP3 DUP3 PUSH2 0x1366 JUMP JUMPDEST SWAP2 SWAP1 POP JUMP JUMPDEST PUSH1 0x0 PUSH8 0xFFFFFFFFFFFFFFFF DUP3 GT ISZERO PUSH2 0x13CD JUMPI PUSH2 0x13CC PUSH2 0x1337 JUMP JUMPDEST JUMPDEST PUSH1 0x20 DUP3 MUL SWAP1 POP PUSH1 0x20 DUP2 ADD SWAP1 POP SWAP2 SWAP1 POP JUMP JUMPDEST PUSH1 0x0 DUP1 REVERT JUMPDEST PUSH1 0x0 PUSH2 0x13F6 PUSH2 0x13F1 DUP5 PUSH2 0x13B2 JUMP JUMPDEST PUSH2 0x1397 JUMP JUMPDEST SWAP1 POP DUP1 DUP4 DUP3 MSTORE PUSH1 0x20 DUP3 ADD SWAP1 POP PUSH1 0x20 DUP5 MUL DUP4 ADD DUP6 DUP2 GT ISZERO PUSH2 0x1419 JUMPI PUSH2 0x1418 PUSH2 0x13DE JUMP JUMPDEST JUMPDEST DUP4 JUMPDEST DUP2 DUP2 LT ISZERO PUSH2 0x1442 JUMPI DUP1 PUSH2 0x142E DUP9 DUP3 PUSH2 0x1256 JUMP JUMPDEST DUP5 MSTORE PUSH1 0x20 DUP5 ADD SWAP4 POP POP PUSH1 0x20 DUP2 ADD SWAP1 POP PUSH2 0x141B JUMP JUMPDEST POP POP POP SWAP4 SWAP3 POP POP POP JUMP JUMPDEST PUSH1 0x0 DUP3 PUSH1 0x1F DUP4 ADD SLT PUSH2 0x1461 JUMPI PUSH2 0x1460 PUSH2 0x1321 JUMP JUMPDEST JUMPDEST DUP2 CALLDATALOAD PUSH2 0x1471 DUP5 DUP3 PUSH1 0x20 DUP7 ADD PUSH2 0x13E3 JUMP JUMPDEST SWAP2 POP POP SWAP3 SWAP2 POP POP JUMP JUMPDEST PUSH1 0x0 PUSH1 0x20 DUP3 DUP5 SUB SLT ISZERO PUSH2 0x1490 JUMPI PUSH2 0x148F PUSH2 0xF5E JUMP JUMPDEST JUMPDEST PUSH1 0x0 DUP3 ADD CALLDATALOAD PUSH8 0xFFFFFFFFFFFFFFFF DUP2 GT ISZERO PUSH2 0x14AE JUMPI PUSH2 0x14AD PUSH2 0xF63 JUMP JUMPDEST JUMPDEST PUSH2 0x14BA DUP5 DUP3 DUP6 ADD PUSH2 0x144C JUMP JUMPDEST SWAP2 POP POP SWAP3 SWAP2 POP POP JUMP JUMPDEST PUSH2 0x14CC DUP2 PUSH2 0x122D JUMP JUMPDEST DUP3 MSTORE POP POP JUMP JUMPDEST PUSH1 0x0 PUSH1 0x20 DUP3 ADD SWAP1 POP PUSH2 0x14E7 PUSH1 0x0 DUP4 ADD DUP5 PUSH2 0x14C3 JUMP JUMPDEST SWAP3 SWAP2 POP POP JUMP JUMPDEST PUSH1 0x0 DUP3 DUP3 MSTORE PUSH1 0x20 DUP3 ADD SWAP1 POP SWAP3 SWAP2 POP POP JUMP JUMPDEST PUSH32 0x4E756D61692061646D696E6973747261746F72756C20706F6174652073636869 PUSH1 0x0 DUP3 ADD MSTORE PUSH32 0x6D6261206D6573616A756C210000000000000000000000000000000000000000 PUSH1 0x20 DUP3 ADD MSTORE POP JUMP JUMPDEST PUSH1 0x0 PUSH2 0x155A PUSH1 0x2C DUP4 PUSH2 0x14ED JUMP JUMPDEST SWAP2 POP PUSH2 0x1565 DUP3 PUSH2 0x14FE JUMP JUMPDEST PUSH1 0x40 DUP3 ADD SWAP1 POP SWAP2 SWAP1 POP JUMP JUMPDEST PUSH1 0x0 PUSH1 0x20 DUP3 ADD SWAP1 POP DUP2 DUP2 SUB PUSH1 0x0 DUP4 ADD MSTORE PUSH2 0x1589 DUP2 PUSH2 0x154D JUMP JUMPDEST SWAP1 POP SWAP2 SWAP1 POP JUMP JUMPDEST PUSH32 0x4E487B7100000000000000000000000000000000000000000000000000000000 PUSH1 0x0 MSTORE PUSH1 0x32 PUSH1 0x4 MSTORE PUSH1 0x24 PUSH1 0x0 REVERT JUMPDEST PUSH32 0x4E487B7100000000000000000000000000000000000000000000000000000000 PUSH1 0x0 MSTORE PUSH1 0x11 PUSH1 0x4 MSTORE PUSH1 0x24 PUSH1 0x0 REVERT JUMPDEST PUSH1 0x0 PUSH2 0x15F9 DUP3 PUSH2 0x10AB JUMP JUMPDEST SWAP2 POP PUSH32 0xFFFFFFFFFFFFFFFFFFFFFFFFFFFFFFFFFFFFFFFFFFFFFFFFFFFFFFFFFFFFFFFF DUP3 SUB PUSH2 0x162B JUMPI PUSH2 0x162A PUSH2 0x15BF JUMP JUMPDEST JUMPDEST PUSH1 0x1 DUP3 ADD SWAP1 POP SWAP2 SWAP1 POP JUMP JUMPDEST PUSH32 0x4E756D61692061646D696E6973747261746F72756C20706F6174652072657365 PUSH1 0x0 DUP3 ADD MSTORE PUSH32 0x74612074696D7069692100000000000000000000000000000000000000000000 PUSH1 0x20 DUP3 ADD MSTORE POP JUMP JUMPDEST PUSH1 0x0 PUSH2 0x1692 PUSH1 0x2A DUP4 PUSH2 0x14ED JUMP JUMPDEST SWAP2 POP PUSH2 0x169D DUP3 PUSH2 0x1636 JUMP JUMPDEST PUSH1 0x40 DUP3 ADD SWAP1 POP SWAP2 SWAP1 POP JUMP JUMPDEST PUSH1 0x0 PUSH1 0x20 DUP3 ADD SWAP1 POP DUP2 DUP2 SUB PUSH1 0x0 DUP4 ADD MSTORE PUSH2 0x16C1 DUP2 PUSH2 0x1685 JUMP JUMPDEST SWAP1 POP SWAP2 SWAP1 POP JUMP JUMPDEST PUSH32 0x496E6361206E752076612070757465746920696E726567697374726121000000 PUSH1 0x0 DUP3 ADD MSTORE POP JUMP JUMPDEST PUSH1 0x0 PUSH2 0x16FE PUSH1 0x1D DUP4 PUSH2 0x14ED JUMP JUMPDEST SWAP2 POP PUSH2 0x1709 DUP3 PUSH2 0x16C8 JUMP JUMPDEST PUSH1 0x20 DUP3 ADD SWAP1 POP SWAP2 SWAP1 POP JUMP JUMPDEST PUSH1 0x0 PUSH1 0x20 DUP3 ADD SWAP1 POP DUP2 DUP2 SUB PUSH1 0x0 DUP4 ADD MSTORE PUSH2 0x172D DUP2 PUSH2 0x16F1 JUMP JUMPDEST SWAP1 POP SWAP2 SWAP1 POP JUMP JUMPDEST PUSH32 0x4E75207661206D61692070757465746920696E72656769737472612100000000 PUSH1 0x0 DUP3 ADD MSTORE POP JUMP JUMPDEST PUSH1 0x0 PUSH2 0x176A PUSH1 0x1C DUP4 PUSH2 0x14ED JUMP JUMPDEST SWAP2 POP PUSH2 0x1775 DUP3 PUSH2 0x1734 JUMP JUMPDEST PUSH1 0x20 DUP3 ADD SWAP1 POP SWAP2 SWAP1 POP JUMP JUMPDEST PUSH1 0x0 PUSH1 0x20 DUP3 ADD SWAP1 POP DUP2 DUP2 SUB PUSH1 0x0 DUP4 ADD MSTORE PUSH2 0x1799 DUP2 PUSH2 0x175D JUMP JUMPDEST SWAP1 POP SWAP2 SWAP1 POP JUMP JUMPDEST PUSH32 0x4E752073756E7465746920656C69676962696C2070656E747275206120766F74 PUSH1 0x0 DUP3 ADD MSTORE PUSH32 0x6121000000000000000000000000000000000000000000000000000000000000 PUSH1 0x20 DUP3 ADD MSTORE POP JUMP JUMPDEST PUSH1 0x0 PUSH2 0x17FC PUSH1 0x22 DUP4 PUSH2 0x14ED JUMP JUMPDEST SWAP2 POP PUSH2 0x1807 DUP3 PUSH2 0x17A0 JUMP JUMPDEST PUSH1 0x40 DUP3 ADD SWAP1 POP SWAP2 SWAP1 POP JUMP JUMPDEST PUSH1 0x0 PUSH1 0x20 DUP3 ADD SWAP1 POP DUP2 DUP2 SUB PUSH1 0x0 DUP4 ADD MSTORE PUSH2 0x182B DUP2 PUSH2 0x17EF JUMP JUMPDEST SWAP1 POP SWAP2 SWAP1 POP JUMP JUMPDEST PUSH32 0x496E6361206E752070757465746920766F746121000000000000000000000000 PUSH1 0x0 DUP3 ADD MSTORE POP JUMP JUMPDEST PUSH1 0x0 PUSH2 0x1868 PUSH1 0x14 DUP4 PUSH2 0x14ED JUMP JUMPDEST SWAP2 POP PUSH2 0x1873 DUP3 PUSH2 0x1832 JUMP JUMPDEST PUSH1 0x20 DUP3 ADD SWAP1 POP SWAP2 SWAP1 POP JUMP JUMPDEST PUSH1 0x0 PUSH1 0x20 DUP3 ADD SWAP1 POP DUP2 DUP2 SUB PUSH1 0x0 DUP4 ADD MSTORE PUSH2 0x1897 DUP2 PUSH2 0x185B JUMP JUMPDEST SWAP1 POP SWAP2 SWAP1 POP JUMP JUMPDEST PUSH32 0x4E75206D61692070757465746920766F74612100000000000000000000000000 PUSH1 0x0 DUP3 ADD MSTORE POP JUMP JUMPDEST PUSH1 0x0 PUSH2 0x18D4 PUSH1 0x13 DUP4 PUSH2 0x14ED JUMP JUMPDEST SWAP2 POP PUSH2 0x18DF DUP3 PUSH2 0x189E JUMP JUMPDEST PUSH1 0x20 DUP3 ADD SWAP1 POP SWAP2 SWAP1 POP JUMP JUMPDEST PUSH1 0x0 PUSH1 0x20 DUP3 ADD SWAP1 POP DUP2 DUP2 SUB PUSH1 0x0 DUP4 ADD MSTORE PUSH2 0x1903 DUP2 PUSH2 0x18C7 JUMP JUMPDEST SWAP1 POP SWAP2 SWAP1 POP JUMP JUMPDEST PUSH32 0x41746920766F7461742064656A61210000000000000000000000000000000000 PUSH1 0x0 DUP3 ADD MSTORE POP JUMP JUMPDEST PUSH1 0x0 PUSH2 0x1940 PUSH1 0xF DUP4 PUSH2 0x14ED JUMP JUMPDEST SWAP2 POP PUSH2 0x194B DUP3 PUSH2 0x190A JUMP JUMPDEST PUSH1 0x20 DUP3 ADD SWAP1 POP SWAP2 SWAP1 POP JUMP JUMPDEST PUSH1 0x0 PUSH1 0x20 DUP3 ADD SWAP1 POP DUP2 DUP2 SUB PUSH1 0x0 DUP4 ADD MSTORE PUSH2 0x196F DUP2 PUSH2 0x1933 JUMP JUMPDEST SWAP1 POP SWAP2 SWAP1 POP JUMP JUMPDEST PUSH32 0x4E756D61692061646D696E6973747261746F72756C20706F6174652073746572 PUSH1 0x0 DUP3 ADD MSTORE PUSH32 0x676520646174656C652100000000000000000000000000000000000000000000 PUSH1 0x20 DUP3 ADD MSTORE POP JUMP JUMPDEST PUSH1 0x0 PUSH2 0x19D2 PUSH1 0x2A DUP4 PUSH2 0x14ED JUMP JUMPDEST SWAP2 POP PUSH2 0x19DD DUP3 PUSH2 0x1976 JUMP JUMPDEST PUSH1 0x40 DUP3 ADD SWAP1 POP SWAP2 SWAP1 POP JUMP JUMPDEST PUSH1 0x0 PUSH1 0x20 DUP3 ADD SWAP1 POP DUP2 DUP2 SUB PUSH1 0x0 DUP4 ADD MSTORE PUSH2 0x1A01 DUP2 PUSH2 0x19C5 JUMP JUMPDEST SWAP1 POP SWAP2 SWAP1 POP JUMP JUMPDEST PUSH32 0x4E756D61692061646D696E6973747261746F72756C20706F6174652073746162 PUSH1 0x0 DUP3 ADD MSTORE PUSH32 0x696C692063696E65206573746520656C69676962696C2070656E74727520766F PUSH1 0x20 DUP3 ADD MSTORE PUSH32 0x7421000000000000000000000000000000000000000000000000000000000000 PUSH1 0x40 DUP3 ADD MSTORE POP JUMP JUMPDEST PUSH1 0x0 PUSH2 0x1A8A PUSH1 0x42 DUP4 PUSH2 0x14ED JUMP JUMPDEST SWAP2 POP PUSH2 0x1A95 DUP3 PUSH2 0x1A08 JUMP JUMPDEST PUSH1 0x60 DUP3 ADD SWAP1 POP SWAP2 SWAP1 POP JUMP JUMPDEST PUSH1 0x0 PUSH1 0x20 DUP3 ADD SWAP1 POP DUP2 DUP2 SUB PUSH1 0x0 DUP4 ADD MSTORE PUSH2 0x1AB9 DUP2 PUSH2 0x1A7D JUMP JUMPDEST SWAP1 POP SWAP2 SWAP1 POP JUMP JUMPDEST PUSH32 0x53657369756E656120646520766F74617265206E7520732D61207465726D696E PUSH1 0x0 DUP3 ADD MSTORE PUSH32 0x6174210000000000000000000000000000000000000000000000000000000000 PUSH1 0x20 DUP3 ADD MSTORE POP JUMP JUMPDEST PUSH1 0x0 PUSH2 0x1B1C PUSH1 0x23 DUP4 PUSH2 0x14ED JUMP JUMPDEST SWAP2 POP PUSH2 0x1B27 DUP3 PUSH2 0x1AC0 JUMP JUMPDEST PUSH1 0x40 DUP3 ADD SWAP1 POP SWAP2 SWAP1 POP JUMP JUMPDEST PUSH1 0x0 PUSH1 0x20 DUP3 ADD SWAP1 POP DUP2 DUP2 SUB PUSH1 0x0 DUP4 ADD MSTORE PUSH2 0x1B4B DUP2 PUSH2 0x1B0F JUMP JUMPDEST SWAP1 POP SWAP2 SWAP1 POP JUMP INVALID LOG2 PUSH5 0x6970667358 0x22 SLT KECCAK256 SWAP4 CALLER 0xE5 0xA8 GASLIMIT 0xB9 DUP11 0xAC SAR LOG2 EXTCODEHASH ADDMOD ADDRESS 0xDC 0xC7 0xE SMOD 0xAC PUSH31 0x331DF3AB0A7669AA709413F30364736F6C6343000811003300000000000000 "},"methodIdentifiers":{"adminAddress()":"fc6f9468","clearData()":"b9e7a439","registrationToSession(bytes32)":"9598abb2","saveYValue(bytes32)":"4d8e1888","session()":"5e3568b8","setEligibleVoters(address[])":"bff0a77f","takeGeneratorAndModule()":"41fd0d9c","takePublicValues()":"267931c0","takeResult()":"a791b476","takeVotes()":"e661c0cd","takeYValue(address)":"a156194d","updateMessageSession(bytes32)":"09e0bd7e","updateTimesForSession(uint256,uint256,uint256,uint256)":"405eaa1c","vote(bytes32)":"a69beaba","voters(address)":"a3ec138d"}}}}}