{
  "_format": "hh-sol-artifact-1",
  "contractName": "eVoting",
  "sourceName": "contracts/EVoting.sol",
  "abi": [
    {
      "inputs": [
        {
          "internalType": "uint256",
          "name": "timeStartRegistry",
          "type": "uint256"
        },
        {
          "internalType": "uint256",
          "name": "timeStopRegistry",
          "type": "uint256"
        },
        {
          "internalType": "uint256",
          "name": "timeStartVote",
          "type": "uint256"
        },
        {
          "internalType": "uint256",
          "name": "timeStopVote",
          "type": "uint256"
        },
        {
          "internalType": "uint256",
          "name": "timeToShowResult",
          "type": "uint256"
        },
        {
          "internalType": "bytes32",
          "name": "generator",
          "type": "bytes32"
        },
        {
          "internalType": "bytes32",
          "name": "module",
          "type": "bytes32"
        },
        {
          "internalType": "bytes32",
          "name": "message",
          "type": "bytes32"
        }
      ],
      "stateMutability": "nonpayable",
      "type": "constructor"
    },
    {
      "inputs": [],
      "name": "adminAddress",
      "outputs": [
        {
          "internalType": "address",
          "name": "",
          "type": "address"
        }
      ],
      "stateMutability": "view",
      "type": "function"
    },
    {
      "inputs": [],
      "name": "clearData",
      "outputs": [],
      "stateMutability": "nonpayable",
      "type": "function"
    },
    {
      "inputs": [
        {
          "internalType": "bytes32",
          "name": "publicValue",
          "type": "bytes32"
        }
      ],
      "name": "registrationToSession",
      "outputs": [],
      "stateMutability": "nonpayable",
      "type": "function"
    },
    {
      "inputs": [
        {
          "internalType": "bytes32",
          "name": "result",
          "type": "bytes32"
        }
      ],
      "name": "saveResult",
      "outputs": [],
      "stateMutability": "nonpayable",
      "type": "function"
    },
    {
      "inputs": [],
      "name": "session",
      "outputs": [
        {
          "internalType": "uint256",
          "name": "timeStartRegistry",
          "type": "uint256"
        },
        {
          "internalType": "uint256",
          "name": "timeStopRegistry",
          "type": "uint256"
        },
        {
          "internalType": "uint256",
          "name": "timeStartVote",
          "type": "uint256"
        },
        {
          "internalType": "uint256",
          "name": "timeStopVote",
          "type": "uint256"
        },
        {
          "internalType": "uint256",
          "name": "timetoShowResult",
          "type": "uint256"
        },
        {
          "internalType": "bytes32",
          "name": "generator",
          "type": "bytes32"
        },
        {
          "internalType": "bytes32",
          "name": "module",
          "type": "bytes32"
        },
        {
          "internalType": "bytes32",
          "name": "message",
          "type": "bytes32"
        },
        {
          "internalType": "bytes32",
          "name": "result",
          "type": "bytes32"
        }
      ],
      "stateMutability": "view",
      "type": "function"
    },
    {
      "inputs": [
        {
          "internalType": "address[]",
          "name": "votersAddresses",
          "type": "address[]"
        }
      ],
      "name": "setEligibleVoters",
      "outputs": [],
      "stateMutability": "nonpayable",
      "type": "function"
    },
    {
      "inputs": [],
      "name": "takeGeneratorAndModule",
      "outputs": [
        {
          "internalType": "bytes32",
          "name": "generator",
          "type": "bytes32"
        },
        {
          "internalType": "bytes32",
          "name": "module",
          "type": "bytes32"
        }
      ],
      "stateMutability": "view",
      "type": "function"
    },
    {
      "inputs": [],
      "name": "takePublicValues",
      "outputs": [
        {
          "internalType": "bytes32[]",
          "name": "publicValues",
          "type": "bytes32[]"
        }
      ],
      "stateMutability": "view",
      "type": "function"
    },
    {
      "inputs": [],
      "name": "takeResult",
      "outputs": [
        {
          "internalType": "bytes32",
          "name": "generator",
          "type": "bytes32"
        },
        {
          "internalType": "bytes32",
          "name": "result",
          "type": "bytes32"
        },
        {
          "internalType": "bytes32",
          "name": "module",
          "type": "bytes32"
        }
      ],
      "stateMutability": "view",
      "type": "function"
    },
    {
      "inputs": [],
      "name": "takeVotes",
      "outputs": [
        {
          "internalType": "bytes32[]",
          "name": "votes_",
          "type": "bytes32[]"
        }
      ],
      "stateMutability": "view",
      "type": "function"
    },
    {
      "inputs": [
        {
          "internalType": "bytes32",
          "name": "generator",
          "type": "bytes32"
        },
        {
          "internalType": "bytes32",
          "name": "module",
          "type": "bytes32"
        }
      ],
      "name": "updateGeneratorAndModule",
      "outputs": [],
      "stateMutability": "nonpayable",
      "type": "function"
    },
    {
      "inputs": [
        {
          "internalType": "bytes32",
          "name": "message",
          "type": "bytes32"
        }
      ],
      "name": "updateMessageSession",
      "outputs": [],
      "stateMutability": "nonpayable",
      "type": "function"
    },
    {
      "inputs": [
        {
          "internalType": "uint256",
          "name": "timeStartRegistry",
          "type": "uint256"
        },
        {
          "internalType": "uint256",
          "name": "timeStopRegistry",
          "type": "uint256"
        },
        {
          "internalType": "uint256",
          "name": "timeStartVote",
          "type": "uint256"
        },
        {
          "internalType": "uint256",
          "name": "timeStopVote",
          "type": "uint256"
        },
        {
          "internalType": "uint256",
          "name": "timeToShowResult",
          "type": "uint256"
        }
      ],
      "name": "updateTimesForSession",
      "outputs": [],
      "stateMutability": "nonpayable",
      "type": "function"
    },
    {
      "inputs": [
        {
          "internalType": "bytes32",
          "name": "encryptedVote",
          "type": "bytes32"
        }
      ],
      "name": "vote",
      "outputs": [],
      "stateMutability": "nonpayable",
      "type": "function"
    },
    {
      "inputs": [
        {
          "internalType": "address",
          "name": "",
          "type": "address"
        }
      ],
      "name": "voters",
      "outputs": [
        {
          "internalType": "bool",
          "name": "registered",
          "type": "bool"
        },
        {
          "internalType": "bool",
          "name": "voted",
          "type": "bool"
        },
        {
          "internalType": "bytes32",
          "name": "publicValue",
          "type": "bytes32"
        },
        {
          "internalType": "bytes32",
          "name": "ZKP",
          "type": "bytes32"
        }
      ],
      "stateMutability": "view",
      "type": "function"
    }
  ],
  "bytecode": "0x60806040523480156200001157600080fd5b50604051620021ac380380620021ac83398181016040528101906200003791906200014f565b336000806101000a81548173ffffffffffffffffffffffffffffffffffffffff021916908373ffffffffffffffffffffffffffffffffffffffff16021790555087600360000181905550866003600101819055508560036002018190555084600380018190555083600360040181905550826003600501819055508160036006018190555080600360080181905550505050505050505062000218565b600080fd5b6000819050919050565b620000ee81620000d9565b8114620000fa57600080fd5b50565b6000815190506200010e81620000e3565b92915050565b6000819050919050565b620001298162000114565b81146200013557600080fd5b50565b60008151905062000149816200011e565b92915050565b600080600080600080600080610100898b031215620001735762000172620000d4565b5b6000620001838b828c01620000fd565b9850506020620001968b828c01620000fd565b9750506040620001a98b828c01620000fd565b9650506060620001bc8b828c01620000fd565b9550506080620001cf8b828c01620000fd565b94505060a0620001e28b828c0162000138565b93505060c0620001f58b828c0162000138565b92505060e0620002088b828c0162000138565b9150509295985092959890939650565b611f8480620002286000396000f3fe608060405234801561001057600080fd5b50600436106100f55760003560e01c8063a69beaba11610097578063d4230e2111610066578063d4230e2114610246578063e661c0cd14610262578063eb74845314610280578063fc6f94681461029c576100f5565b8063a69beaba146101e4578063a791b47614610200578063b9e7a43914610220578063bff0a77f1461022a576100f5565b80634e5c5dae116100d35780634e5c5dae146101535780635e3568b81461016f5780639598abb214610195578063a3ec138d146101b1576100f5565b806309e0bd7e146100fa578063267931c01461011657806341fd0d9c14610134575b600080fd5b610114600480360381019061010f91906110e1565b6102ba565b005b61011e610355565b60405161012b91906111cc565b60405180910390f35b61013c61046c565b60405161014a9291906111fd565b60405180910390f35b61016d6004803603810190610168919061125c565b610483565b005b610177610549565b60405161018c999897969594939291906112e6565b60405180910390f35b6101af60048036038101906101aa91906110e1565b610585565b005b6101cb60048036038101906101c691906113d1565b6107f3565b6040516101db9493929190611419565b60405180910390f35b6101fe60048036038101906101f991906110e1565b61083d565b005b610208610aca565b6040516102179392919061145e565b60405180910390f35b610228610aec565b005b610244600480360381019061023f91906115ee565b610be7565b005b610260600480360381019061025b9190611637565b610d88565b005b61026a610e2e565b60405161027791906111cc565b60405180910390f35b61029a600480360381019061029591906110e1565b610ecf565b005b6102a4610ff7565b6040516102b19190611686565b60405180910390f35b60008054906101000a900473ffffffffffffffffffffffffffffffffffffffff1673ffffffffffffffffffffffffffffffffffffffff163373ffffffffffffffffffffffffffffffffffffffff1614610348576040517f08c379a000000000000000000000000000000000000000000000000000000000815260040161033f90611724565b60405180910390fd5b8060036008018190555050565b606060028054905067ffffffffffffffff811115610376576103756114ab565b5b6040519080825280602002602001820160405280156103a45781602001602082028036833780820191505090505b50905060005b6002805490508110156104685760016000600283815481106103cf576103ce611744565b5b9060005260206000200160009054906101000a900473ffffffffffffffffffffffffffffffffffffffff1673ffffffffffffffffffffffffffffffffffffffff1673ffffffffffffffffffffffffffffffffffffffff1681526020019081526020016000206001015482828151811061044b5761044a611744565b5b60200260200101818152505080610461906117a2565b90506103aa565b5090565b600080600360050154915060036006015490509091565b3373ffffffffffffffffffffffffffffffffffffffff1660008054906101000a900473ffffffffffffffffffffffffffffffffffffffff1673ffffffffffffffffffffffffffffffffffffffff1614610511576040517f08c379a00000000000000000000000000000000000000000000000000000000081526004016105089061185c565b60405180910390fd5b846003600001819055508360036001018190555082600360020181905550816003800181905550806003600401819055505050505050565b60038060000154908060010154908060020154908060030154908060040154908060050154908060060154908060080154908060090154905089565b42600360000154106105cc576040517f08c379a00000000000000000000000000000000000000000000000000000000081526004016105c3906118c8565b60405180910390fd5b4260036001015411610613576040517f08c379a000000000000000000000000000000000000000000000000000000000815260040161060a90611934565b60405180910390fd5b6000805b6002805490508110156106ab573373ffffffffffffffffffffffffffffffffffffffff166002828154811061064f5761064e611744565b5b9060005260206000200160009054906101000a900473ffffffffffffffffffffffffffffffffffffffff1673ffffffffffffffffffffffffffffffffffffffff160361069a57600191505b806106a4906117a2565b9050610617565b5060011515811515146106f3576040517f08c379a00000000000000000000000000000000000000000000000000000000081526004016106ea906119c6565b60405180910390fd5b60018060003373ffffffffffffffffffffffffffffffffffffffff1673ffffffffffffffffffffffffffffffffffffffff16815260200190815260200160002060000160006101000a81548160ff0219169083151502179055506000600160003373ffffffffffffffffffffffffffffffffffffffff1673ffffffffffffffffffffffffffffffffffffffff16815260200190815260200160002060000160016101000a81548160ff02191690831515021790555081600160003373ffffffffffffffffffffffffffffffffffffffff1673ffffffffffffffffffffffffffffffffffffffff168152602001908152602001600020600101819055505050565b60016020528060005260406000206000915090508060000160009054906101000a900460ff16908060000160019054906101000a900460ff16908060010154908060020154905084565b4260036002015410610884576040517f08c379a000000000000000000000000000000000000000000000000000000000815260040161087b90611a32565b60405180910390fd5b426003800154116108ca576040517f08c379a00000000000000000000000000000000000000000000000000000000081526004016108c190611a9e565b60405180910390fd5b6000805b600280549050811015610962573373ffffffffffffffffffffffffffffffffffffffff166002828154811061090657610905611744565b5b9060005260206000200160009054906101000a900473ffffffffffffffffffffffffffffffffffffffff1673ffffffffffffffffffffffffffffffffffffffff160361095157600191505b8061095b906117a2565b90506108ce565b5060011515811515146109aa576040517f08c379a00000000000000000000000000000000000000000000000000000000081526004016109a1906119c6565b60405180910390fd5b60001515600160003373ffffffffffffffffffffffffffffffffffffffff1673ffffffffffffffffffffffffffffffffffffffff16815260200190815260200160002060000160019054906101000a900460ff16151514610a40576040517f08c379a0000000000000000000000000000000000000000000000000000000008152600401610a3790611b0a565b60405180910390fd5b600360070182908060018154018082558091505060019003906000526020600020016000909190919091505560018060003373ffffffffffffffffffffffffffffffffffffffff1673ffffffffffffffffffffffffffffffffffffffff16815260200190815260200160002060000160016101000a81548160ff0219169083151502179055505050565b6000806000600360050154925060036009015491506003600601549050909192565b60008054906101000a900473ffffffffffffffffffffffffffffffffffffffff1673ffffffffffffffffffffffffffffffffffffffff163373ffffffffffffffffffffffffffffffffffffffff1614610b7a576040517f08c379a0000000000000000000000000000000000000000000000000000000008152600401610b7190611b9c565b60405180910390fd5b6003600080820160009055600182016000905560028201600090556003820160009055600482016000905560058201600090556006820160009055600782016000610bc5919061101b565b60088201600090556009820160009055505060026000610be5919061103c565b565b60008054906101000a900473ffffffffffffffffffffffffffffffffffffffff1673ffffffffffffffffffffffffffffffffffffffff163373ffffffffffffffffffffffffffffffffffffffff1614610c75576040517f08c379a0000000000000000000000000000000000000000000000000000000008152600401610c6c90611c54565b60405180910390fd5b60005b8151811015610d84576002828281518110610c9657610c95611744565b5b60200260200101519080600181540180825580915050600190039060005260206000200160009091909190916101000a81548173ffffffffffffffffffffffffffffffffffffffff021916908373ffffffffffffffffffffffffffffffffffffffff160217905550600060016000848481518110610d1757610d16611744565b5b602002602001015173ffffffffffffffffffffffffffffffffffffffff1673ffffffffffffffffffffffffffffffffffffffff16815260200190815260200160002060000160006101000a81548160ff02191690831515021790555080610d7d906117a2565b9050610c78565b5050565b60008054906101000a900473ffffffffffffffffffffffffffffffffffffffff1673ffffffffffffffffffffffffffffffffffffffff163373ffffffffffffffffffffffffffffffffffffffff1614610e16576040517f08c379a0000000000000000000000000000000000000000000000000000000008152600401610e0d90611ce6565b60405180910390fd5b81600360050181905550806003600601819055505050565b606042600380015410610e76576040517f08c379a0000000000000000000000000000000000000000000000000000000008152600401610e6d90611d78565b60405180910390fd5b6003600701805480602002602001604051908101604052809291908181526020018280548015610ec557602002820191906000526020600020905b815481526020019060010190808311610eb1575b5050505050905090565b60008054906101000a900473ffffffffffffffffffffffffffffffffffffffff1673ffffffffffffffffffffffffffffffffffffffff163373ffffffffffffffffffffffffffffffffffffffff1614610f5d576040517f08c379a0000000000000000000000000000000000000000000000000000000008152600401610f5490611e0a565b60405180910390fd5b42600380015410610fa3576040517f08c379a0000000000000000000000000000000000000000000000000000000008152600401610f9a90611e9c565b60405180910390fd5b4260036004015411610fea576040517f08c379a0000000000000000000000000000000000000000000000000000000008152600401610fe190611f2e565b60405180910390fd5b8060036009018190555050565b60008054906101000a900473ffffffffffffffffffffffffffffffffffffffff1681565b5080546000825590600052602060002090810190611039919061105d565b50565b508054600082559060005260206000209081019061105a919061107a565b50565b5b8082111561107657600081600090555060010161105e565b5090565b5b8082111561109357600081600090555060010161107b565b5090565b6000604051905090565b600080fd5b600080fd5b6000819050919050565b6110be816110ab565b81146110c957600080fd5b50565b6000813590506110db816110b5565b92915050565b6000602082840312156110f7576110f66110a1565b5b6000611105848285016110cc565b91505092915050565b600081519050919050565b600082825260208201905092915050565b6000819050602082019050919050565b611143816110ab565b82525050565b6000611155838361113a565b60208301905092915050565b6000602082019050919050565b60006111798261110e565b6111838185611119565b935061118e8361112a565b8060005b838110156111bf5781516111a68882611149565b97506111b183611161565b925050600181019050611192565b5085935050505092915050565b600060208201905081810360008301526111e6818461116e565b905092915050565b6111f7816110ab565b82525050565b600060408201905061121260008301856111ee565b61121f60208301846111ee565b9392505050565b6000819050919050565b61123981611226565b811461124457600080fd5b50565b60008135905061125681611230565b92915050565b600080600080600060a08688031215611278576112776110a1565b5b600061128688828901611247565b955050602061129788828901611247565b94505060406112a888828901611247565b93505060606112b988828901611247565b92505060806112ca88828901611247565b9150509295509295909350565b6112e081611226565b82525050565b6000610120820190506112fc600083018c6112d7565b611309602083018b6112d7565b611316604083018a6112d7565b61132360608301896112d7565b61133060808301886112d7565b61133d60a08301876111ee565b61134a60c08301866111ee565b61135760e08301856111ee565b6113656101008301846111ee565b9a9950505050505050505050565b600073ffffffffffffffffffffffffffffffffffffffff82169050919050565b600061139e82611373565b9050919050565b6113ae81611393565b81146113b957600080fd5b50565b6000813590506113cb816113a5565b92915050565b6000602082840312156113e7576113e66110a1565b5b60006113f5848285016113bc565b91505092915050565b60008115159050919050565b611413816113fe565b82525050565b600060808201905061142e600083018761140a565b61143b602083018661140a565b61144860408301856111ee565b61145560608301846111ee565b95945050505050565b600060608201905061147360008301866111ee565b61148060208301856111ee565b61148d60408301846111ee565b949350505050565b600080fd5b6000601f19601f8301169050919050565b7f4e487b7100000000000000000000000000000000000000000000000000000000600052604160045260246000fd5b6114e38261149a565b810181811067ffffffffffffffff82111715611502576115016114ab565b5b80604052505050565b6000611515611097565b905061152182826114da565b919050565b600067ffffffffffffffff821115611541576115406114ab565b5b602082029050602081019050919050565b600080fd5b600061156a61156584611526565b61150b565b9050808382526020820190506020840283018581111561158d5761158c611552565b5b835b818110156115b657806115a288826113bc565b84526020840193505060208101905061158f565b5050509392505050565b600082601f8301126115d5576115d4611495565b5b81356115e5848260208601611557565b91505092915050565b600060208284031215611604576116036110a1565b5b600082013567ffffffffffffffff811115611622576116216110a6565b5b61162e848285016115c0565b91505092915050565b6000806040838503121561164e5761164d6110a1565b5b600061165c858286016110cc565b925050602061166d858286016110cc565b9150509250929050565b61168081611393565b82525050565b600060208201905061169b6000830184611677565b92915050565b600082825260208201905092915050565b7f4e756d61692061646d696e6973747261746f72756c20706f617465207363686960008201527f6d6261206d6573616a756c210000000000000000000000000000000000000000602082015250565b600061170e602c836116a1565b9150611719826116b2565b604082019050919050565b6000602082019050818103600083015261173d81611701565b9050919050565b7f4e487b7100000000000000000000000000000000000000000000000000000000600052603260045260246000fd5b7f4e487b7100000000000000000000000000000000000000000000000000000000600052601160045260246000fd5b60006117ad82611226565b91507fffffffffffffffffffffffffffffffffffffffffffffffffffffffffffffffff82036117df576117de611773565b5b600182019050919050565b7f4e756d61692061646d696e6973747261746f72756c20706f617465207265736560008201527f74612074696d7069692100000000000000000000000000000000000000000000602082015250565b6000611846602a836116a1565b9150611851826117ea565b604082019050919050565b6000602082019050818103600083015261187581611839565b9050919050565b7f496e6361206e752076612070757465746920696e726567697374726121000000600082015250565b60006118b2601d836116a1565b91506118bd8261187c565b602082019050919050565b600060208201905081810360008301526118e1816118a5565b9050919050565b7f4e75207661206d61692070757465746920696e72656769737472612100000000600082015250565b600061191e601c836116a1565b9150611929826118e8565b602082019050919050565b6000602082019050818103600083015261194d81611911565b9050919050565b7f4e752073756e7465746920656c69676962696c2070656e747275206120766f7460008201527f6121000000000000000000000000000000000000000000000000000000000000602082015250565b60006119b06022836116a1565b91506119bb82611954565b604082019050919050565b600060208201905081810360008301526119df816119a3565b9050919050565b7f496e6361206e752070757465746920766f746121000000000000000000000000600082015250565b6000611a1c6014836116a1565b9150611a27826119e6565b602082019050919050565b60006020820190508181036000830152611a4b81611a0f565b9050919050565b7f4e75206d61692070757465746920766f74612100000000000000000000000000600082015250565b6000611a886013836116a1565b9150611a9382611a52565b602082019050919050565b60006020820190508181036000830152611ab781611a7b565b9050919050565b7f41746920766f7461742064656a61210000000000000000000000000000000000600082015250565b6000611af4600f836116a1565b9150611aff82611abe565b602082019050919050565b60006020820190508181036000830152611b2381611ae7565b9050919050565b7f4e756d61692061646d696e6973747261746f72756c20706f617465207374657260008201527f676520646174656c652100000000000000000000000000000000000000000000602082015250565b6000611b86602a836116a1565b9150611b9182611b2a565b604082019050919050565b60006020820190508181036000830152611bb581611b79565b9050919050565b7f4e756d61692061646d696e6973747261746f72756c20706f617465207374616260008201527f696c692063696e65206573746520656c69676962696c2070656e74727520766f60208201527f7421000000000000000000000000000000000000000000000000000000000000604082015250565b6000611c3e6042836116a1565b9150611c4982611bbc565b606082019050919050565b60006020820190508181036000830152611c6d81611c31565b9050919050565b7f4e756d61692061646d696e6973747261746f72756c20706f617465207363686960008201527f6d62612067656e657261746f72756c207369206d6f64756c756c210000000000602082015250565b6000611cd0603b836116a1565b9150611cdb82611c74565b604082019050919050565b60006020820190508181036000830152611cff81611cc3565b9050919050565b7f53657369756e656120646520766f74617265206e7520732d61207465726d696e60008201527f6174210000000000000000000000000000000000000000000000000000000000602082015250565b6000611d626023836116a1565b9150611d6d82611d06565b604082019050919050565b60006020820190508181036000830152611d9181611d55565b9050919050565b7f446f61722061646d696e6973747261746f72756c20706f61746520616e756e7460008201527f612072657a756c746174756c2066696e616c2100000000000000000000000000602082015250565b6000611df46033836116a1565b9150611dff82611d98565b604082019050919050565b60006020820190508181036000830152611e2381611de7565b9050919050565b7f496e6361206e7520732d61207465726d696e61742073657369756e656120646560008201527f20766f7461726521000000000000000000000000000000000000000000000000602082015250565b6000611e866028836116a1565b9150611e9182611e2a565b604082019050919050565b60006020820190508181036000830152611eb581611e79565b9050919050565b7f4e75207365206d616920706f6174652073616c76612072657a756c746174756c60008201527f2100000000000000000000000000000000000000000000000000000000000000602082015250565b6000611f186021836116a1565b9150611f2382611ebc565b604082019050919050565b60006020820190508181036000830152611f4781611f0b565b905091905056fea2646970667358221220b5844d6f16cc78c057725e6397f7f46e82627591e4a10d911d0c42990ef4299264736f6c63430008110033",
  "linkReferences": {},
  "deployedLinkReferences": {}
}