{
  "_format": "hh-sol-artifact-1",
  "contractName": "eVoting",
  "sourceName": "contracts/EVoting.sol",
  "abi": [
    {
      "inputs": [
        {
          "internalType": "uint256",
          "name": "timeStartRegistry",
          "type": "uint256"
        },
        {
          "internalType": "uint256",
          "name": "timeStopRegistry",
          "type": "uint256"
        },
        {
          "internalType": "uint256",
          "name": "timeStartVote",
          "type": "uint256"
        },
        {
          "internalType": "uint256",
          "name": "timeStopVote",
          "type": "uint256"
        },
        {
          "internalType": "uint256",
          "name": "timeToShowResult",
          "type": "uint256"
        },
        {
          "internalType": "bytes32",
          "name": "generator",
          "type": "bytes32"
        },
        {
          "internalType": "bytes32",
          "name": "module",
          "type": "bytes32"
        },
        {
          "internalType": "bytes32",
          "name": "message",
          "type": "bytes32"
        }
      ],
      "stateMutability": "nonpayable",
      "type": "constructor"
    },
    {
      "inputs": [],
      "name": "adminAddress",
      "outputs": [
        {
          "internalType": "address",
          "name": "",
          "type": "address"
        }
      ],
      "stateMutability": "view",
      "type": "function"
    },
    {
      "inputs": [],
      "name": "clearData",
      "outputs": [],
      "stateMutability": "nonpayable",
      "type": "function"
    },
    {
      "inputs": [
        {
          "internalType": "bytes32",
          "name": "publicValue",
          "type": "bytes32"
        }
      ],
      "name": "registrationToSession",
      "outputs": [],
      "stateMutability": "nonpayable",
      "type": "function"
    },
    {
      "inputs": [
        {
          "internalType": "bytes32",
          "name": "result",
          "type": "bytes32"
        }
      ],
      "name": "saveResult",
      "outputs": [],
      "stateMutability": "nonpayable",
      "type": "function"
    },
    {
      "inputs": [],
      "name": "session",
      "outputs": [
        {
          "internalType": "uint256",
          "name": "timeStartRegistry",
          "type": "uint256"
        },
        {
          "internalType": "uint256",
          "name": "timeStopRegistry",
          "type": "uint256"
        },
        {
          "internalType": "uint256",
          "name": "timeStartVote",
          "type": "uint256"
        },
        {
          "internalType": "uint256",
          "name": "timeStopVote",
          "type": "uint256"
        },
        {
          "internalType": "uint256",
          "name": "timetoShowResult",
          "type": "uint256"
        },
        {
          "internalType": "bytes32",
          "name": "generator",
          "type": "bytes32"
        },
        {
          "internalType": "bytes32",
          "name": "module",
          "type": "bytes32"
        },
        {
          "internalType": "bytes32",
          "name": "message",
          "type": "bytes32"
        },
        {
          "internalType": "bytes32",
          "name": "result",
          "type": "bytes32"
        }
      ],
      "stateMutability": "view",
      "type": "function"
    },
    {
      "inputs": [
        {
          "internalType": "address[]",
          "name": "votersAddresses",
          "type": "address[]"
        }
      ],
      "name": "setEligibleVoters",
      "outputs": [],
      "stateMutability": "nonpayable",
      "type": "function"
    },
    {
      "inputs": [],
      "name": "takeGeneratorAndModule",
      "outputs": [
        {
          "internalType": "bytes32",
          "name": "generator",
          "type": "bytes32"
        },
        {
          "internalType": "bytes32",
          "name": "module",
          "type": "bytes32"
        }
      ],
      "stateMutability": "view",
      "type": "function"
    },
    {
      "inputs": [],
      "name": "takePublicValues",
      "outputs": [
        {
          "internalType": "bytes32[]",
          "name": "publicValues",
          "type": "bytes32[]"
        }
      ],
      "stateMutability": "view",
      "type": "function"
    },
    {
      "inputs": [],
      "name": "takeResult",
      "outputs": [
        {
          "internalType": "bytes32",
          "name": "generator",
          "type": "bytes32"
        },
        {
          "internalType": "bytes32",
          "name": "result",
          "type": "bytes32"
        },
        {
          "internalType": "bytes32",
          "name": "module",
          "type": "bytes32"
        }
      ],
      "stateMutability": "view",
      "type": "function"
    },
    {
      "inputs": [],
      "name": "takeVotes",
      "outputs": [
        {
          "internalType": "bytes32[]",
          "name": "votes_",
          "type": "bytes32[]"
        }
      ],
      "stateMutability": "view",
      "type": "function"
    },
    {
      "inputs": [
        {
          "internalType": "bytes32",
          "name": "generator",
          "type": "bytes32"
        },
        {
          "internalType": "bytes32",
          "name": "module",
          "type": "bytes32"
        }
      ],
      "name": "updateGeneratorAndModule",
      "outputs": [],
      "stateMutability": "nonpayable",
      "type": "function"
    },
    {
      "inputs": [
        {
          "internalType": "bytes32",
          "name": "message",
          "type": "bytes32"
        }
      ],
      "name": "updateMessageSession",
      "outputs": [],
      "stateMutability": "nonpayable",
      "type": "function"
    },
    {
      "inputs": [
        {
          "internalType": "uint256",
          "name": "timeStartRegistry",
          "type": "uint256"
        },
        {
          "internalType": "uint256",
          "name": "timeStopRegistry",
          "type": "uint256"
        },
        {
          "internalType": "uint256",
          "name": "timeStartVote",
          "type": "uint256"
        },
        {
          "internalType": "uint256",
          "name": "timeStopVote",
          "type": "uint256"
        },
        {
          "internalType": "uint256",
          "name": "timeToShowResult",
          "type": "uint256"
        }
      ],
      "name": "updateTimesForSession",
      "outputs": [],
      "stateMutability": "nonpayable",
      "type": "function"
    },
    {
      "inputs": [
        {
          "internalType": "bytes32",
          "name": "encryptedVote",
          "type": "bytes32"
        }
      ],
      "name": "vote",
      "outputs": [],
      "stateMutability": "nonpayable",
      "type": "function"
    },
    {
      "inputs": [
        {
          "internalType": "address",
          "name": "",
          "type": "address"
        }
      ],
      "name": "voters",
      "outputs": [
        {
          "internalType": "bool",
          "name": "registered",
          "type": "bool"
        },
        {
          "internalType": "bool",
          "name": "voted",
          "type": "bool"
        },
        {
          "internalType": "bytes32",
          "name": "publicValue",
          "type": "bytes32"
        },
        {
          "internalType": "bytes32",
          "name": "ZKP",
          "type": "bytes32"
        }
      ],
      "stateMutability": "view",
      "type": "function"
    }
  ],
  "bytecode": "0x60806040523480156200001157600080fd5b50604051620024283803806200242883398181016040528101906200003791906200014f565b336000806101000a81548173ffffffffffffffffffffffffffffffffffffffff021916908373ffffffffffffffffffffffffffffffffffffffff16021790555087600360000181905550866003600101819055508560036002018190555084600380018190555083600360040181905550826003600501819055508160036006018190555080600360080181905550505050505050505062000218565b600080fd5b6000819050919050565b620000ee81620000d9565b8114620000fa57600080fd5b50565b6000815190506200010e81620000e3565b92915050565b6000819050919050565b620001298162000114565b81146200013557600080fd5b50565b60008151905062000149816200011e565b92915050565b600080600080600080600080610100898b031215620001735762000172620000d4565b5b6000620001838b828c01620000fd565b9850506020620001968b828c01620000fd565b9750506040620001a98b828c01620000fd565b9650506060620001bc8b828c01620000fd565b9550506080620001cf8b828c01620000fd565b94505060a0620001e28b828c0162000138565b93505060c0620001f58b828c0162000138565b92505060e0620002088b828c0162000138565b9150509295985092959890939650565b61220080620002286000396000f3fe608060405234801561001057600080fd5b50600436106100f55760003560e01c8063a69beaba11610097578063d4230e2111610066578063d4230e2114610246578063e661c0cd14610262578063eb74845314610280578063fc6f94681461029c576100f5565b8063a69beaba146101e4578063a791b47614610200578063b9e7a43914610220578063bff0a77f1461022a576100f5565b80634e5c5dae116100d35780634e5c5dae146101535780635e3568b81461016f5780639598abb214610195578063a3ec138d146101b1576100f5565b806309e0bd7e146100fa578063267931c01461011657806341fd0d9c14610134575b600080fd5b610114600480360381019061010f91906112cb565b6102ba565b005b61011e610355565b60405161012b91906113b6565b60405180910390f35b61013c61046c565b60405161014a9291906113e7565b60405180910390f35b61016d60048036038101906101689190611446565b610483565b005b610177610549565b60405161018c999897969594939291906114d0565b60405180910390f35b6101af60048036038101906101aa91906112cb565b610585565b005b6101cb60048036038101906101c691906115bb565b610889565b6040516101db9493929190611603565b60405180910390f35b6101fe60048036038101906101f991906112cb565b6108d3565b005b610208610b60565b60405161021793929190611648565b60405180910390f35b610228610b82565b005b610244600480360381019061023f91906117d8565b610dd1565b005b610260600480360381019061025b9190611821565b610f72565b005b61026a611018565b60405161027791906113b6565b60405180910390f35b61029a600480360381019061029591906112cb565b6110b9565b005b6102a46111e1565b6040516102b19190611870565b60405180910390f35b60008054906101000a900473ffffffffffffffffffffffffffffffffffffffff1673ffffffffffffffffffffffffffffffffffffffff163373ffffffffffffffffffffffffffffffffffffffff1614610348576040517f08c379a000000000000000000000000000000000000000000000000000000000815260040161033f9061190e565b60405180910390fd5b8060036008018190555050565b606060028054905067ffffffffffffffff81111561037657610375611695565b5b6040519080825280602002602001820160405280156103a45781602001602082028036833780820191505090505b50905060005b6002805490508110156104685760016000600283815481106103cf576103ce61192e565b5b9060005260206000200160009054906101000a900473ffffffffffffffffffffffffffffffffffffffff1673ffffffffffffffffffffffffffffffffffffffff1673ffffffffffffffffffffffffffffffffffffffff1681526020019081526020016000206001015482828151811061044b5761044a61192e565b5b602002602001018181525050806104619061198c565b90506103aa565b5090565b600080600360050154915060036006015490509091565b3373ffffffffffffffffffffffffffffffffffffffff1660008054906101000a900473ffffffffffffffffffffffffffffffffffffffff1673ffffffffffffffffffffffffffffffffffffffff1614610511576040517f08c379a000000000000000000000000000000000000000000000000000000000815260040161050890611a46565b60405180910390fd5b846003600001819055508360036001018190555082600360020181905550816003800181905550806003600401819055505050505050565b60038060000154908060010154908060020154908060030154908060040154908060050154908060060154908060080154908060090154905089565b42600360000154106105cc576040517f08c379a00000000000000000000000000000000000000000000000000000000081526004016105c390611ab2565b60405180910390fd5b4260036001015411610613576040517f08c379a000000000000000000000000000000000000000000000000000000000815260040161060a90611b1e565b60405180910390fd5b60001515600160003373ffffffffffffffffffffffffffffffffffffffff1673ffffffffffffffffffffffffffffffffffffffff16815260200190815260200160002060000160009054906101000a900460ff161515146106a9576040517f08c379a00000000000000000000000000000000000000000000000000000000081526004016106a090611bb0565b60405180910390fd5b6000805b600280549050811015610741573373ffffffffffffffffffffffffffffffffffffffff16600282815481106106e5576106e461192e565b5b9060005260206000200160009054906101000a900473ffffffffffffffffffffffffffffffffffffffff1673ffffffffffffffffffffffffffffffffffffffff160361073057600191505b8061073a9061198c565b90506106ad565b506001151581151514610789576040517f08c379a000000000000000000000000000000000000000000000000000000000815260040161078090611c42565b60405180910390fd5b60018060003373ffffffffffffffffffffffffffffffffffffffff1673ffffffffffffffffffffffffffffffffffffffff16815260200190815260200160002060000160006101000a81548160ff0219169083151502179055506000600160003373ffffffffffffffffffffffffffffffffffffffff1673ffffffffffffffffffffffffffffffffffffffff16815260200190815260200160002060000160016101000a81548160ff02191690831515021790555081600160003373ffffffffffffffffffffffffffffffffffffffff1673ffffffffffffffffffffffffffffffffffffffff168152602001908152602001600020600101819055505050565b60016020528060005260406000206000915090508060000160009054906101000a900460ff16908060000160019054906101000a900460ff16908060010154908060020154905084565b426003600201541061091a576040517f08c379a000000000000000000000000000000000000000000000000000000000815260040161091190611cae565b60405180910390fd5b42600380015411610960576040517f08c379a000000000000000000000000000000000000000000000000000000000815260040161095790611d1a565b60405180910390fd5b6000805b6002805490508110156109f8573373ffffffffffffffffffffffffffffffffffffffff166002828154811061099c5761099b61192e565b5b9060005260206000200160009054906101000a900473ffffffffffffffffffffffffffffffffffffffff1673ffffffffffffffffffffffffffffffffffffffff16036109e757600191505b806109f19061198c565b9050610964565b506001151581151514610a40576040517f08c379a0000000000000000000000000000000000000000000000000000000008152600401610a3790611c42565b60405180910390fd5b60001515600160003373ffffffffffffffffffffffffffffffffffffffff1673ffffffffffffffffffffffffffffffffffffffff16815260200190815260200160002060000160019054906101000a900460ff16151514610ad6576040517f08c379a0000000000000000000000000000000000000000000000000000000008152600401610acd90611d86565b60405180910390fd5b600360070182908060018154018082558091505060019003906000526020600020016000909190919091505560018060003373ffffffffffffffffffffffffffffffffffffffff1673ffffffffffffffffffffffffffffffffffffffff16815260200190815260200160002060000160016101000a81548160ff0219169083151502179055505050565b6000806000600360050154925060036009015491506003600601549050909192565b60008054906101000a900473ffffffffffffffffffffffffffffffffffffffff1673ffffffffffffffffffffffffffffffffffffffff163373ffffffffffffffffffffffffffffffffffffffff1614610c10576040517f08c379a0000000000000000000000000000000000000000000000000000000008152600401610c0790611e18565b60405180910390fd5b60005b600280549050811015610d635760006001600060028481548110610c3a57610c3961192e565b5b9060005260206000200160009054906101000a900473ffffffffffffffffffffffffffffffffffffffff1673ffffffffffffffffffffffffffffffffffffffff1673ffffffffffffffffffffffffffffffffffffffff16815260200190815260200160002060000160016101000a81548160ff02191690831515021790555060006001600060028481548110610cd357610cd261192e565b5b9060005260206000200160009054906101000a900473ffffffffffffffffffffffffffffffffffffffff1673ffffffffffffffffffffffffffffffffffffffff1673ffffffffffffffffffffffffffffffffffffffff16815260200190815260200160002060000160006101000a81548160ff02191690831515021790555080610d5c9061198c565b9050610c13565b506003600080820160009055600182016000905560028201600090556003820160009055600482016000905560058201600090556006820160009055600782016000610daf9190611205565b60088201600090556009820160009055505060026000610dcf9190611226565b565b60008054906101000a900473ffffffffffffffffffffffffffffffffffffffff1673ffffffffffffffffffffffffffffffffffffffff163373ffffffffffffffffffffffffffffffffffffffff1614610e5f576040517f08c379a0000000000000000000000000000000000000000000000000000000008152600401610e5690611ed0565b60405180910390fd5b60005b8151811015610f6e576002828281518110610e8057610e7f61192e565b5b60200260200101519080600181540180825580915050600190039060005260206000200160009091909190916101000a81548173ffffffffffffffffffffffffffffffffffffffff021916908373ffffffffffffffffffffffffffffffffffffffff160217905550600060016000848481518110610f0157610f0061192e565b5b602002602001015173ffffffffffffffffffffffffffffffffffffffff1673ffffffffffffffffffffffffffffffffffffffff16815260200190815260200160002060000160006101000a81548160ff02191690831515021790555080610f679061198c565b9050610e62565b5050565b60008054906101000a900473ffffffffffffffffffffffffffffffffffffffff1673ffffffffffffffffffffffffffffffffffffffff163373ffffffffffffffffffffffffffffffffffffffff1614611000576040517f08c379a0000000000000000000000000000000000000000000000000000000008152600401610ff790611f62565b60405180910390fd5b81600360050181905550806003600601819055505050565b606042600380015410611060576040517f08c379a000000000000000000000000000000000000000000000000000000000815260040161105790611ff4565b60405180910390fd5b60036007018054806020026020016040519081016040528092919081815260200182805480156110af57602002820191906000526020600020905b81548152602001906001019080831161109b575b5050505050905090565b60008054906101000a900473ffffffffffffffffffffffffffffffffffffffff1673ffffffffffffffffffffffffffffffffffffffff163373ffffffffffffffffffffffffffffffffffffffff1614611147576040517f08c379a000000000000000000000000000000000000000000000000000000000815260040161113e90612086565b60405180910390fd5b4260038001541061118d576040517f08c379a000000000000000000000000000000000000000000000000000000000815260040161118490612118565b60405180910390fd5b42600360040154116111d4576040517f08c379a00000000000000000000000000000000000000000000000000000000081526004016111cb906121aa565b60405180910390fd5b8060036009018190555050565b60008054906101000a900473ffffffffffffffffffffffffffffffffffffffff1681565b50805460008255906000526020600020908101906112239190611247565b50565b50805460008255906000526020600020908101906112449190611264565b50565b5b80821115611260576000816000905550600101611248565b5090565b5b8082111561127d576000816000905550600101611265565b5090565b6000604051905090565b600080fd5b600080fd5b6000819050919050565b6112a881611295565b81146112b357600080fd5b50565b6000813590506112c58161129f565b92915050565b6000602082840312156112e1576112e061128b565b5b60006112ef848285016112b6565b91505092915050565b600081519050919050565b600082825260208201905092915050565b6000819050602082019050919050565b61132d81611295565b82525050565b600061133f8383611324565b60208301905092915050565b6000602082019050919050565b6000611363826112f8565b61136d8185611303565b935061137883611314565b8060005b838110156113a95781516113908882611333565b975061139b8361134b565b92505060018101905061137c565b5085935050505092915050565b600060208201905081810360008301526113d08184611358565b905092915050565b6113e181611295565b82525050565b60006040820190506113fc60008301856113d8565b61140960208301846113d8565b9392505050565b6000819050919050565b61142381611410565b811461142e57600080fd5b50565b6000813590506114408161141a565b92915050565b600080600080600060a086880312156114625761146161128b565b5b600061147088828901611431565b955050602061148188828901611431565b945050604061149288828901611431565b93505060606114a388828901611431565b92505060806114b488828901611431565b9150509295509295909350565b6114ca81611410565b82525050565b6000610120820190506114e6600083018c6114c1565b6114f3602083018b6114c1565b611500604083018a6114c1565b61150d60608301896114c1565b61151a60808301886114c1565b61152760a08301876113d8565b61153460c08301866113d8565b61154160e08301856113d8565b61154f6101008301846113d8565b9a9950505050505050505050565b600073ffffffffffffffffffffffffffffffffffffffff82169050919050565b60006115888261155d565b9050919050565b6115988161157d565b81146115a357600080fd5b50565b6000813590506115b58161158f565b92915050565b6000602082840312156115d1576115d061128b565b5b60006115df848285016115a6565b91505092915050565b60008115159050919050565b6115fd816115e8565b82525050565b600060808201905061161860008301876115f4565b61162560208301866115f4565b61163260408301856113d8565b61163f60608301846113d8565b95945050505050565b600060608201905061165d60008301866113d8565b61166a60208301856113d8565b61167760408301846113d8565b949350505050565b600080fd5b6000601f19601f8301169050919050565b7f4e487b7100000000000000000000000000000000000000000000000000000000600052604160045260246000fd5b6116cd82611684565b810181811067ffffffffffffffff821117156116ec576116eb611695565b5b80604052505050565b60006116ff611281565b905061170b82826116c4565b919050565b600067ffffffffffffffff82111561172b5761172a611695565b5b602082029050602081019050919050565b600080fd5b600061175461174f84611710565b6116f5565b905080838252602082019050602084028301858111156117775761177661173c565b5b835b818110156117a0578061178c88826115a6565b845260208401935050602081019050611779565b5050509392505050565b600082601f8301126117bf576117be61167f565b5b81356117cf848260208601611741565b91505092915050565b6000602082840312156117ee576117ed61128b565b5b600082013567ffffffffffffffff81111561180c5761180b611290565b5b611818848285016117aa565b91505092915050565b600080604083850312156118385761183761128b565b5b6000611846858286016112b6565b9250506020611857858286016112b6565b9150509250929050565b61186a8161157d565b82525050565b60006020820190506118856000830184611861565b92915050565b600082825260208201905092915050565b7f4e756d61692061646d696e6973747261746f72756c20706f617465207363686960008201527f6d6261206d6573616a756c210000000000000000000000000000000000000000602082015250565b60006118f8602c8361188b565b91506119038261189c565b604082019050919050565b60006020820190508181036000830152611927816118eb565b9050919050565b7f4e487b7100000000000000000000000000000000000000000000000000000000600052603260045260246000fd5b7f4e487b7100000000000000000000000000000000000000000000000000000000600052601160045260246000fd5b600061199782611410565b91507fffffffffffffffffffffffffffffffffffffffffffffffffffffffffffffffff82036119c9576119c861195d565b5b600182019050919050565b7f4e756d61692061646d696e6973747261746f72756c20706f617465207265736560008201527f74612074696d7069692100000000000000000000000000000000000000000000602082015250565b6000611a30602a8361188b565b9150611a3b826119d4565b604082019050919050565b60006020820190508181036000830152611a5f81611a23565b9050919050565b7f496e6361206e752076612070757465746920696e726567697374726121000000600082015250565b6000611a9c601d8361188b565b9150611aa782611a66565b602082019050919050565b60006020820190508181036000830152611acb81611a8f565b9050919050565b7f4e75207661206d61692070757465746920696e72656769737472612100000000600082015250565b6000611b08601c8361188b565b9150611b1382611ad2565b602082019050919050565b60006020820190508181036000830152611b3781611afb565b9050919050565b7f56612070757465746920696e726567697374726120646520646f7561206f726960008201527f2100000000000000000000000000000000000000000000000000000000000000602082015250565b6000611b9a60218361188b565b9150611ba582611b3e565b604082019050919050565b60006020820190508181036000830152611bc981611b8d565b9050919050565b7f4e752073756e7465746920656c69676962696c2070656e747275206120766f7460008201527f6121000000000000000000000000000000000000000000000000000000000000602082015250565b6000611c2c60228361188b565b9150611c3782611bd0565b604082019050919050565b60006020820190508181036000830152611c5b81611c1f565b9050919050565b7f496e6361206e752070757465746920766f746121000000000000000000000000600082015250565b6000611c9860148361188b565b9150611ca382611c62565b602082019050919050565b60006020820190508181036000830152611cc781611c8b565b9050919050565b7f4e75206d61692070757465746920766f74612100000000000000000000000000600082015250565b6000611d0460138361188b565b9150611d0f82611cce565b602082019050919050565b60006020820190508181036000830152611d3381611cf7565b9050919050565b7f41746920766f7461742064656a61210000000000000000000000000000000000600082015250565b6000611d70600f8361188b565b9150611d7b82611d3a565b602082019050919050565b60006020820190508181036000830152611d9f81611d63565b9050919050565b7f4e756d61692061646d696e6973747261746f72756c20706f617465207374657260008201527f676520646174656c652100000000000000000000000000000000000000000000602082015250565b6000611e02602a8361188b565b9150611e0d82611da6565b604082019050919050565b60006020820190508181036000830152611e3181611df5565b9050919050565b7f4e756d61692061646d696e6973747261746f72756c20706f617465207374616260008201527f696c692063696e65206573746520656c69676962696c2070656e74727520766f60208201527f7421000000000000000000000000000000000000000000000000000000000000604082015250565b6000611eba60428361188b565b9150611ec582611e38565b606082019050919050565b60006020820190508181036000830152611ee981611ead565b9050919050565b7f4e756d61692061646d696e6973747261746f72756c20706f617465207363686960008201527f6d62612067656e657261746f72756c207369206d6f64756c756c210000000000602082015250565b6000611f4c603b8361188b565b9150611f5782611ef0565b604082019050919050565b60006020820190508181036000830152611f7b81611f3f565b9050919050565b7f53657369756e656120646520766f74617265206e7520732d61207465726d696e60008201527f6174210000000000000000000000000000000000000000000000000000000000602082015250565b6000611fde60238361188b565b9150611fe982611f82565b604082019050919050565b6000602082019050818103600083015261200d81611fd1565b9050919050565b7f446f61722061646d696e6973747261746f72756c20706f61746520616e756e7460008201527f612072657a756c746174756c2066696e616c2100000000000000000000000000602082015250565b600061207060338361188b565b915061207b82612014565b604082019050919050565b6000602082019050818103600083015261209f81612063565b9050919050565b7f496e6361206e7520732d61207465726d696e61742073657369756e656120646560008201527f20766f7461726521000000000000000000000000000000000000000000000000602082015250565b600061210260288361188b565b915061210d826120a6565b604082019050919050565b60006020820190508181036000830152612131816120f5565b9050919050565b7f4e75207365206d616920706f6174652073616c76612072657a756c746174756c60008201527f2100000000000000000000000000000000000000000000000000000000000000602082015250565b600061219460218361188b565b915061219f82612138565b604082019050919050565b600060208201905081810360008301526121c381612187565b905091905056fea2646970667358221220905d0e428643c89a5456ccee63a0cdda4cecec5ceb726f3843c5d0e6f6f44d2964736f6c63430008110033",
  "linkReferences": {},
  "deployedLinkReferences": {}
}