{
  "_format": "hh-sol-artifact-1",
  "contractName": "eVoting",
  "sourceName": "contracts/EVoting.sol",
  "abi": [
    {
      "inputs": [
        {
          "internalType": "uint256",
          "name": "timeStartRegistry",
          "type": "uint256"
        },
        {
          "internalType": "uint256",
          "name": "timeStopRegistry",
          "type": "uint256"
        },
        {
          "internalType": "uint256",
          "name": "timeStartVote",
          "type": "uint256"
        },
        {
          "internalType": "uint256",
          "name": "timeStopVote",
          "type": "uint256"
        },
        {
          "internalType": "bytes32",
          "name": "generator",
          "type": "bytes32"
        },
        {
          "internalType": "bytes32",
          "name": "module",
          "type": "bytes32"
        },
        {
          "internalType": "bytes32",
          "name": "message",
          "type": "bytes32"
        }
      ],
      "stateMutability": "nonpayable",
      "type": "constructor"
    },
    {
      "inputs": [],
      "name": "adminAddress",
      "outputs": [
        {
          "internalType": "address",
          "name": "",
          "type": "address"
        }
      ],
      "stateMutability": "view",
      "type": "function"
    },
    {
      "inputs": [],
      "name": "clearData",
      "outputs": [],
      "stateMutability": "nonpayable",
      "type": "function"
    },
    {
      "inputs": [
        {
          "internalType": "bytes32",
          "name": "publicValue",
          "type": "bytes32"
        }
      ],
      "name": "registrationToSession",
      "outputs": [],
      "stateMutability": "nonpayable",
      "type": "function"
    },
    {
      "inputs": [
        {
          "internalType": "bytes32",
          "name": "yValue",
          "type": "bytes32"
        }
      ],
      "name": "saveYValue",
      "outputs": [],
      "stateMutability": "nonpayable",
      "type": "function"
    },
    {
      "inputs": [],
      "name": "session",
      "outputs": [
        {
          "internalType": "uint256",
          "name": "timeStartRegistry",
          "type": "uint256"
        },
        {
          "internalType": "uint256",
          "name": "timeStopRegistry",
          "type": "uint256"
        },
        {
          "internalType": "uint256",
          "name": "timeStartVote",
          "type": "uint256"
        },
        {
          "internalType": "uint256",
          "name": "timeStopVote",
          "type": "uint256"
        },
        {
          "internalType": "bytes32",
          "name": "generator",
          "type": "bytes32"
        },
        {
          "internalType": "bytes32",
          "name": "module",
          "type": "bytes32"
        },
        {
          "internalType": "bytes32",
          "name": "message",
          "type": "bytes32"
        },
        {
          "internalType": "bytes32",
          "name": "result",
          "type": "bytes32"
        }
      ],
      "stateMutability": "view",
      "type": "function"
    },
    {
      "inputs": [
        {
          "internalType": "address[]",
          "name": "votersAddresses",
          "type": "address[]"
        }
      ],
      "name": "setEligibleVoters",
      "outputs": [],
      "stateMutability": "nonpayable",
      "type": "function"
    },
    {
      "inputs": [],
      "name": "takeGeneratorAndModule",
      "outputs": [
        {
          "internalType": "bytes32",
          "name": "generator",
          "type": "bytes32"
        },
        {
          "internalType": "bytes32",
          "name": "module",
          "type": "bytes32"
        }
      ],
      "stateMutability": "view",
      "type": "function"
    },
    {
      "inputs": [],
      "name": "takePublicValues",
      "outputs": [
        {
          "internalType": "bytes32[]",
          "name": "publicValues",
          "type": "bytes32[]"
        }
      ],
      "stateMutability": "view",
      "type": "function"
    },
    {
      "inputs": [],
      "name": "takeResult",
      "outputs": [
        {
          "internalType": "bytes32",
          "name": "generator",
          "type": "bytes32"
        },
        {
          "internalType": "bytes32",
          "name": "result",
          "type": "bytes32"
        }
      ],
      "stateMutability": "view",
      "type": "function"
    },
    {
      "inputs": [],
      "name": "takeVotes",
      "outputs": [
        {
          "internalType": "bytes32[]",
          "name": "votes_",
          "type": "bytes32[]"
        }
      ],
      "stateMutability": "view",
      "type": "function"
    },
    {
      "inputs": [
        {
          "internalType": "address",
          "name": "voterAddress",
          "type": "address"
        }
      ],
      "name": "takeYValue",
      "outputs": [
        {
          "internalType": "bytes32",
          "name": "yValue",
          "type": "bytes32"
        }
      ],
      "stateMutability": "view",
      "type": "function"
    },
    {
      "inputs": [
        {
          "internalType": "bytes32",
          "name": "message",
          "type": "bytes32"
        }
      ],
      "name": "updateMessageSession",
      "outputs": [],
      "stateMutability": "nonpayable",
      "type": "function"
    },
    {
      "inputs": [
        {
          "internalType": "uint256",
          "name": "timeStartRegistry",
          "type": "uint256"
        },
        {
          "internalType": "uint256",
          "name": "timeStopRegistry",
          "type": "uint256"
        },
        {
          "internalType": "uint256",
          "name": "timeStartVote",
          "type": "uint256"
        },
        {
          "internalType": "uint256",
          "name": "timeStopVote",
          "type": "uint256"
        }
      ],
      "name": "updateTimesForSession",
      "outputs": [],
      "stateMutability": "nonpayable",
      "type": "function"
    },
    {
      "inputs": [
        {
          "internalType": "bytes32",
          "name": "encryptedVote",
          "type": "bytes32"
        }
      ],
      "name": "vote",
      "outputs": [],
      "stateMutability": "nonpayable",
      "type": "function"
    },
    {
      "inputs": [
        {
          "internalType": "address",
          "name": "",
          "type": "address"
        }
      ],
      "name": "voters",
      "outputs": [
        {
          "internalType": "bool",
          "name": "registered",
          "type": "bool"
        },
        {
          "internalType": "bool",
          "name": "voted",
          "type": "bool"
        },
        {
          "internalType": "bytes32",
          "name": "publicValue",
          "type": "bytes32"
        },
        {
          "internalType": "bytes32",
          "name": "yValue",
          "type": "bytes32"
        },
        {
          "internalType": "bytes32",
          "name": "ZKP",
          "type": "bytes32"
        }
      ],
      "stateMutability": "view",
      "type": "function"
    }
  ],
  "bytecode": "0x60806040523480156200001157600080fd5b5060405162001d8f38038062001d8f833981810160405281019062000037919062000144565b336000806101000a81548173ffffffffffffffffffffffffffffffffffffffff021916908373ffffffffffffffffffffffffffffffffffffffff16021790555086600360000181905550856003600101819055508460036002018190555083600380018190555082600360040181905550816003600501819055508060036007018190555050505050505050620001f7565b600080fd5b6000819050919050565b620000e381620000ce565b8114620000ef57600080fd5b50565b6000815190506200010381620000d8565b92915050565b6000819050919050565b6200011e8162000109565b81146200012a57600080fd5b50565b6000815190506200013e8162000113565b92915050565b600080600080600080600060e0888a031215620001665762000165620000c9565b5b6000620001768a828b01620000f2565b9750506020620001898a828b01620000f2565b96505060406200019c8a828b01620000f2565b9550506060620001af8a828b01620000f2565b9450506080620001c28a828b016200012d565b93505060a0620001d58a828b016200012d565b92505060c0620001e88a828b016200012d565b91505092959891949750929550565b611b8880620002076000396000f3fe608060405234801561001057600080fd5b50600436106100f55760003560e01c8063a156194d11610097578063b9e7a43911610066578063b9e7a4391461026b578063bff0a77f14610275578063e661c0cd14610291578063fc6f9468146102af576100f5565b8063a156194d146101cc578063a3ec138d146101fc578063a69beaba14610230578063a791b4761461024c576100f5565b806341fd0d9c116100d357806341fd0d9c146101505780634d8e18881461016f5780635e3568b81461018b5780639598abb2146101b0576100f5565b806309e0bd7e146100fa578063267931c014610116578063405eaa1c14610134575b600080fd5b610114600480360381019061010f9190610f9e565b6102cd565b005b61011e610368565b60405161012b9190611089565b60405180910390f35b61014e600480360381019061014991906110e1565b61047f565b005b61015861053a565b604051610166929190611157565b60405180910390f35b61018960048036038101906101849190610f9e565b610551565b005b61019361059b565b6040516101a798979695949392919061118f565b60405180910390f35b6101ca60048036038101906101c59190610f9e565b6105d1565b005b6101e660048036038101906101e1919061126b565b61083f565b6040516101f39190611298565b60405180910390f35b6102166004803603810190610211919061126b565b61088b565b6040516102279594939291906112ce565b60405180910390f35b61024a60048036038101906102459190610f9e565b6108db565b005b610254610b68565b604051610262929190611157565b60405180910390f35b610273610b7f565b005b61028f600480360381019061028a919061147a565b610c72565b005b610299610e13565b6040516102a69190611089565b60405180910390f35b6102b7610eb4565b6040516102c491906114d2565b60405180910390f35b60008054906101000a900473ffffffffffffffffffffffffffffffffffffffff1673ffffffffffffffffffffffffffffffffffffffff163373ffffffffffffffffffffffffffffffffffffffff161461035b576040517f08c379a000000000000000000000000000000000000000000000000000000000815260040161035290611570565b60405180910390fd5b8060036007018190555050565b606060028054905067ffffffffffffffff81111561038957610388611337565b5b6040519080825280602002602001820160405280156103b75781602001602082028036833780820191505090505b50905060005b60028054905081101561047b5760016000600283815481106103e2576103e1611590565b5b9060005260206000200160009054906101000a900473ffffffffffffffffffffffffffffffffffffffff1673ffffffffffffffffffffffffffffffffffffffff1673ffffffffffffffffffffffffffffffffffffffff1681526020019081526020016000206001015482828151811061045e5761045d611590565b5b60200260200101818152505080610474906115ee565b90506103bd565b5090565b3373ffffffffffffffffffffffffffffffffffffffff1660008054906101000a900473ffffffffffffffffffffffffffffffffffffffff1673ffffffffffffffffffffffffffffffffffffffff161461050d576040517f08c379a0000000000000000000000000000000000000000000000000000000008152600401610504906116a8565b60405180910390fd5b83600360000181905550826003600101819055508160036002018190555080600380018190555050505050565b600080600360040154915060036005015490509091565b80600160003373ffffffffffffffffffffffffffffffffffffffff1673ffffffffffffffffffffffffffffffffffffffff1681526020019081526020016000206002018190555050565b60038060000154908060010154908060020154908060030154908060040154908060050154908060070154908060080154905088565b4260036000015410610618576040517f08c379a000000000000000000000000000000000000000000000000000000000815260040161060f90611714565b60405180910390fd5b426003600101541161065f576040517f08c379a000000000000000000000000000000000000000000000000000000000815260040161065690611780565b60405180910390fd5b6000805b6002805490508110156106f7573373ffffffffffffffffffffffffffffffffffffffff166002828154811061069b5761069a611590565b5b9060005260206000200160009054906101000a900473ffffffffffffffffffffffffffffffffffffffff1673ffffffffffffffffffffffffffffffffffffffff16036106e657600191505b806106f0906115ee565b9050610663565b50600115158115151461073f576040517f08c379a000000000000000000000000000000000000000000000000000000000815260040161073690611812565b60405180910390fd5b60018060003373ffffffffffffffffffffffffffffffffffffffff1673ffffffffffffffffffffffffffffffffffffffff16815260200190815260200160002060000160016101000a81548160ff0219169083151502179055506000600160003373ffffffffffffffffffffffffffffffffffffffff1673ffffffffffffffffffffffffffffffffffffffff16815260200190815260200160002060000160016101000a81548160ff02191690831515021790555081600160003373ffffffffffffffffffffffffffffffffffffffff1673ffffffffffffffffffffffffffffffffffffffff168152602001908152602001600020600101819055505050565b6000600160008373ffffffffffffffffffffffffffffffffffffffff1673ffffffffffffffffffffffffffffffffffffffff168152602001908152602001600020600201549050919050565b60016020528060005260406000206000915090508060000160009054906101000a900460ff16908060000160019054906101000a900460ff16908060010154908060020154908060030154905085565b4260036002015410610922576040517f08c379a00000000000000000000000000000000000000000000000000000000081526004016109199061187e565b60405180910390fd5b42600380015411610968576040517f08c379a000000000000000000000000000000000000000000000000000000000815260040161095f906118ea565b60405180910390fd5b6000805b600280549050811015610a00573373ffffffffffffffffffffffffffffffffffffffff16600282815481106109a4576109a3611590565b5b9060005260206000200160009054906101000a900473ffffffffffffffffffffffffffffffffffffffff1673ffffffffffffffffffffffffffffffffffffffff16036109ef57600191505b806109f9906115ee565b905061096c565b506001151581151514610a48576040517f08c379a0000000000000000000000000000000000000000000000000000000008152600401610a3f90611812565b60405180910390fd5b60001515600160003373ffffffffffffffffffffffffffffffffffffffff1673ffffffffffffffffffffffffffffffffffffffff16815260200190815260200160002060000160019054906101000a900460ff16151514610ade576040517f08c379a0000000000000000000000000000000000000000000000000000000008152600401610ad590611956565b60405180910390fd5b600360060182908060018154018082558091505060019003906000526020600020016000909190919091505560018060003373ffffffffffffffffffffffffffffffffffffffff1673ffffffffffffffffffffffffffffffffffffffff16815260200190815260200160002060000160016101000a81548160ff0219169083151502179055505050565b600080600360040154915060036008015490509091565b60008054906101000a900473ffffffffffffffffffffffffffffffffffffffff1673ffffffffffffffffffffffffffffffffffffffff163373ffffffffffffffffffffffffffffffffffffffff1614610c0d576040517f08c379a0000000000000000000000000000000000000000000000000000000008152600401610c04906119e8565b60405180910390fd5b600360008082016000905560018201600090556002820160009055600382016000905560048201600090556005820160009055600682016000610c509190610ed8565b60078201600090556008820160009055505060026000610c709190610ef9565b565b60008054906101000a900473ffffffffffffffffffffffffffffffffffffffff1673ffffffffffffffffffffffffffffffffffffffff163373ffffffffffffffffffffffffffffffffffffffff1614610d00576040517f08c379a0000000000000000000000000000000000000000000000000000000008152600401610cf790611aa0565b60405180910390fd5b60005b8151811015610e0f576002828281518110610d2157610d20611590565b5b60200260200101519080600181540180825580915050600190039060005260206000200160009091909190916101000a81548173ffffffffffffffffffffffffffffffffffffffff021916908373ffffffffffffffffffffffffffffffffffffffff160217905550600060016000848481518110610da257610da1611590565b5b602002602001015173ffffffffffffffffffffffffffffffffffffffff1673ffffffffffffffffffffffffffffffffffffffff16815260200190815260200160002060000160006101000a81548160ff02191690831515021790555080610e08906115ee565b9050610d03565b5050565b606042600380015410610e5b576040517f08c379a0000000000000000000000000000000000000000000000000000000008152600401610e5290611b32565b60405180910390fd5b6003600601805480602002602001604051908101604052809291908181526020018280548015610eaa57602002820191906000526020600020905b815481526020019060010190808311610e96575b5050505050905090565b60008054906101000a900473ffffffffffffffffffffffffffffffffffffffff1681565b5080546000825590600052602060002090810190610ef69190610f1a565b50565b5080546000825590600052602060002090810190610f179190610f37565b50565b5b80821115610f33576000816000905550600101610f1b565b5090565b5b80821115610f50576000816000905550600101610f38565b5090565b6000604051905090565b600080fd5b600080fd5b6000819050919050565b610f7b81610f68565b8114610f8657600080fd5b50565b600081359050610f9881610f72565b92915050565b600060208284031215610fb457610fb3610f5e565b5b6000610fc284828501610f89565b91505092915050565b600081519050919050565b600082825260208201905092915050565b6000819050602082019050919050565b61100081610f68565b82525050565b60006110128383610ff7565b60208301905092915050565b6000602082019050919050565b600061103682610fcb565b6110408185610fd6565b935061104b83610fe7565b8060005b8381101561107c5781516110638882611006565b975061106e8361101e565b92505060018101905061104f565b5085935050505092915050565b600060208201905081810360008301526110a3818461102b565b905092915050565b6000819050919050565b6110be816110ab565b81146110c957600080fd5b50565b6000813590506110db816110b5565b92915050565b600080600080608085870312156110fb576110fa610f5e565b5b6000611109878288016110cc565b945050602061111a878288016110cc565b935050604061112b878288016110cc565b925050606061113c878288016110cc565b91505092959194509250565b61115181610f68565b82525050565b600060408201905061116c6000830185611148565b6111796020830184611148565b9392505050565b611189816110ab565b82525050565b6000610100820190506111a5600083018b611180565b6111b2602083018a611180565b6111bf6040830189611180565b6111cc6060830188611180565b6111d96080830187611148565b6111e660a0830186611148565b6111f360c0830185611148565b61120060e0830184611148565b9998505050505050505050565b600073ffffffffffffffffffffffffffffffffffffffff82169050919050565b60006112388261120d565b9050919050565b6112488161122d565b811461125357600080fd5b50565b6000813590506112658161123f565b92915050565b60006020828403121561128157611280610f5e565b5b600061128f84828501611256565b91505092915050565b60006020820190506112ad6000830184611148565b92915050565b60008115159050919050565b6112c8816112b3565b82525050565b600060a0820190506112e360008301886112bf565b6112f060208301876112bf565b6112fd6040830186611148565b61130a6060830185611148565b6113176080830184611148565b9695505050505050565b600080fd5b6000601f19601f8301169050919050565b7f4e487b7100000000000000000000000000000000000000000000000000000000600052604160045260246000fd5b61136f82611326565b810181811067ffffffffffffffff8211171561138e5761138d611337565b5b80604052505050565b60006113a1610f54565b90506113ad8282611366565b919050565b600067ffffffffffffffff8211156113cd576113cc611337565b5b602082029050602081019050919050565b600080fd5b60006113f66113f1846113b2565b611397565b90508083825260208201905060208402830185811115611419576114186113de565b5b835b81811015611442578061142e8882611256565b84526020840193505060208101905061141b565b5050509392505050565b600082601f83011261146157611460611321565b5b81356114718482602086016113e3565b91505092915050565b6000602082840312156114905761148f610f5e565b5b600082013567ffffffffffffffff8111156114ae576114ad610f63565b5b6114ba8482850161144c565b91505092915050565b6114cc8161122d565b82525050565b60006020820190506114e760008301846114c3565b92915050565b600082825260208201905092915050565b7f4e756d61692061646d696e6973747261746f72756c20706f617465207363686960008201527f6d6261206d6573616a756c210000000000000000000000000000000000000000602082015250565b600061155a602c836114ed565b9150611565826114fe565b604082019050919050565b600060208201905081810360008301526115898161154d565b9050919050565b7f4e487b7100000000000000000000000000000000000000000000000000000000600052603260045260246000fd5b7f4e487b7100000000000000000000000000000000000000000000000000000000600052601160045260246000fd5b60006115f9826110ab565b91507fffffffffffffffffffffffffffffffffffffffffffffffffffffffffffffffff820361162b5761162a6115bf565b5b600182019050919050565b7f4e756d61692061646d696e6973747261746f72756c20706f617465207265736560008201527f74612074696d7069692100000000000000000000000000000000000000000000602082015250565b6000611692602a836114ed565b915061169d82611636565b604082019050919050565b600060208201905081810360008301526116c181611685565b9050919050565b7f496e6361206e752076612070757465746920696e726567697374726121000000600082015250565b60006116fe601d836114ed565b9150611709826116c8565b602082019050919050565b6000602082019050818103600083015261172d816116f1565b9050919050565b7f4e75207661206d61692070757465746920696e72656769737472612100000000600082015250565b600061176a601c836114ed565b915061177582611734565b602082019050919050565b600060208201905081810360008301526117998161175d565b9050919050565b7f4e752073756e7465746920656c69676962696c2070656e747275206120766f7460008201527f6121000000000000000000000000000000000000000000000000000000000000602082015250565b60006117fc6022836114ed565b9150611807826117a0565b604082019050919050565b6000602082019050818103600083015261182b816117ef565b9050919050565b7f496e6361206e752070757465746920766f746121000000000000000000000000600082015250565b60006118686014836114ed565b915061187382611832565b602082019050919050565b600060208201905081810360008301526118978161185b565b9050919050565b7f4e75206d61692070757465746920766f74612100000000000000000000000000600082015250565b60006118d46013836114ed565b91506118df8261189e565b602082019050919050565b60006020820190508181036000830152611903816118c7565b9050919050565b7f41746920766f7461742064656a61210000000000000000000000000000000000600082015250565b6000611940600f836114ed565b915061194b8261190a565b602082019050919050565b6000602082019050818103600083015261196f81611933565b9050919050565b7f4e756d61692061646d696e6973747261746f72756c20706f617465207374657260008201527f676520646174656c652100000000000000000000000000000000000000000000602082015250565b60006119d2602a836114ed565b91506119dd82611976565b604082019050919050565b60006020820190508181036000830152611a01816119c5565b9050919050565b7f4e756d61692061646d696e6973747261746f72756c20706f617465207374616260008201527f696c692063696e65206573746520656c69676962696c2070656e74727520766f60208201527f7421000000000000000000000000000000000000000000000000000000000000604082015250565b6000611a8a6042836114ed565b9150611a9582611a08565b606082019050919050565b60006020820190508181036000830152611ab981611a7d565b9050919050565b7f53657369756e656120646520766f74617265206e7520732d61207465726d696e60008201527f6174210000000000000000000000000000000000000000000000000000000000602082015250565b6000611b1c6023836114ed565b9150611b2782611ac0565b604082019050919050565b60006020820190508181036000830152611b4b81611b0f565b905091905056fea26469706673582212209333e5a845b98aac1da23f0830dcc70e07ac7e331df3ab0a7669aa709413f30364736f6c63430008110033",
  "linkReferences": {},
  "deployedLinkReferences": {}
}